:020000040800F2
:10000000303A00202D030008610300083703000880
:10001000E3030008E7030008EB030008000000000A
:10002000000000000000000000000000EF030008D6
:10003000F103000800000000F3030008F5030008C6
:10004000570300085703000857030008F903000886
:100050005703000857030008570300085703000818
:100060005703000857030008570300085703000808
:1000700057030008570300085703000857030008F8
:1000800057030008570300085703000857030008E8
:1000900057030008570300085703000857030008D8
:1000A00057030008570300085703000857030008C8
:1000B00057030008570300085703000857030008B8
:1000C00057030008570300085703000857030008A8
:1000D000570300085703000857030008ED1F0008E6
:1000E000F7030008570300085703000857030008E8
:1000F0005703000857030008570300085703000878
:100100005703000857030008570300085703000867
:100110005703000857030008570300085703000857
:100120005703000857030008570300085703000847
:10013000DFF80CD006F0BAFE004800470D060008B4
:10014000303A00200CB50020019000906C48006807
:1001500040F480306A49086000BF6948006800F4D4
:10016000003000900198401C0190009818B9019847
:10017000B0F5A06FF1D16248006800F4003010B112
:100180000120009001E0002000900098012843D158
:100190005C48006840F010005A4908600846006852
:1001A00020F0030008600846006840F00200086084
:1001B00053484068524948600846406848600846CD
:1001C000406840F4806048600846406820F47C1035
:1001D00048600846406840F450204860084600687F
:1001E00040F08070086000BF4548006800F0007073
:1001F0000028F9D04248406820F003004049486098
:100200000846406840F00200486000BF3C48406833
:1002100000F00C000828F9D10CBD10B5FFF792FFD3
:1002200010BD10B53648006840F001003449086040
:10023000084640683449084031494860084600682B
:10024000324908402E4908600846006820F48020A2
:1002500008600846406820F4FE0048604FF41F0024
:100260008860FFF7DAFF4FF000602949086010BD91
:1002700010B5002100200022214B5B6803F00C0127
:1002800021B1042906D0082928D107E0214B224CAE
:10029000236027E0214B204C236023E0184B5B6850
:1002A00003F47010164B5B6803F48032022303EBF7
:1002B000904022B91A4B4343174C23600DE0104B7A
:1002C0005B6803F4003323B1164B4343124C2360A5
:1002D00003E0124B4343104C236003E00D4B0E4CE4
:1002E000236000BF00BF064B5B68C3F303130E4CD3
:1002F000E15C094B1B68CB40074C236010BD00003C
:1003000000100240002002400000FFF8FFFFF6FE50
:1003100008ED00E000127A0000000020001BB7008A
:1003200000093D00808D5B00040000200A488047E2
:100330000A480047FEE71EF0040F0CBFEFF30880E9
:10034000EFF3098000F00DB8FEE7FEE7FEE7FEE7F9
:10035000FEE7FEE7FEE7FEE72302000831010008A2
:10036000704708B5044625686668A768D4F80C800D
:10037000D4F81090D4F814A0D4F818B0E069009024
:1003800029461EA006F0E8FF31461FA006F0E4FF54
:10039000394620A006F0E0FF414621A006F0DCFF30
:1003A000494622A006F0D8FF514623A006F0D4FF0C
:1003B000594624A006F0D0FF25A0009906F0CCFFF6
:1003C0002648016826A006F0C7FF24480C300168C3
:1003D00026A006F0C1FF4FF0FF302049086000BFA3
:1003E000FEE700BFFEE700BFFEE700BFFEE7704785
:1003F00070477047704770477047000052303D208B
:10040000307825780A00000052313D203078257878
:100410000A00000052323D20307825780A000000A2
:1004200052333D20307825780A0000005231323DA9
:1004300020307825780A00004C523D20307825780D
:100440000A00000050433D20307825780A00000063
:100450005053523D20307825780A00002CED00E002
:10046000484653523D20307825780A004246415292
:100470003D20307825780A00F8B504460D4616462A
:100480001F46387833462A4621460090B9A006F028
:1004900063FF40F6EF40844207D135B941F2DA609C
:1004A000864202D1387801F07BFEF8BD2DE9FF4786
:1004B00004460D461646994640F6E54084420DD165
:1004C00065B941F24460864208D102F056FAAF485D
:1004D000006806F02AFBAE4A03C237E040F6E74068
:1004E000844217D1B5B941F24460864212D100204E
:1004F00002900390684602F0DCFEDDE90001CDE9E0
:100500000201029806F0F0FA074606F0C5FAA14A81
:1005100003C21BE040F6E840844217D1B5B941F26E
:100520004460864212D1002002900390684602F097
:10053000C0FEDDE90001CDE90201039806F0D4FA1E
:10054000074606F0A9FA944A03C200BFBDE8FF8738
:100550002DE9F04704460D4616469946DDE9087830
:1005600033462A4621468DA006F0F6FEBDE8F08708
:100570001FB504468E48006820448E4909688842A9
:1005800030D800208B490860894908608148407A4A
:1005900040F008007F4948727F48407A40F00800E8
:1005A0007D494872684602F084FEDDE90001CDE92C
:1005B0000201029806F0B9FA764A03C2039806F0DF
:1005C000B4FA754A03C27248407A40F00800704994
:1005D000487202F0D2F96D48006806F0A6FA6C4A3B
:1005E00003C212E07348006858B97148006840B906
:1005F00004F001FA6F490860084600686C49086019
:1006000003E004F0F8F96B4908601FBD08B5054622
:100610000E464FF47A773146284603F055FFAFF285
:10062000CF00AFF27713AFF2AF12394600906248B5
:1006300005F02EF804463CB15F48006805F09DF8CF
:1006400021465EA006F088FE05206A490872032054
:100650004872084641F2DA63002240F6EF4100900A
:100660005548006805F017FE04463CB15248006842
:1006700005F083F8214660A006F06EFE042045498F
:10068000087201204872084641F24463002240F695
:10069000E74100904848006805F0FDFD04463CB184
:1006A0004548006805F069F821465FA006F054FE51
:1006B00004203949087201204872084641F2446317
:1006C000002240F6E84100903B48006805F0E3FD59
:1006D00004463CB13848006805F04FF821465EA05A
:1006E00006F03AFE04202A490872012048720846A2
:1006F00041F24463002240F6E54100902E48006834
:1007000005F0C9FD04463CB12B48006805F035F8FA
:1007100021465DA006F020FE2748006805F0B4FEE3
:1007200064212548006805F07FFC04462CB163A0D5
:1007300006F012FE03F03CFF02E067A006F00CFE9C
:1007400000BF01211C48006805F021FD044664B18A
:10075000214668A006F000FE002001F0EBFC6DA031
:1007600006F0FAFD03F024FF02E06420FFF700FF2B
:10077000E7E700007772697465202F25642F2564F0
:100780002F2564A3BA25640D0A00000098000020FC
:10079000E8000020C8000020D800002065786563CC
:1007A000757465202F25642F25642F25640D0A009C
:1007B0003400002038000020300000206465766995
:1007C000636520616464207265736F757263652868
:1007D0002F333230302F302F3537353029206661B6
:1007E000696C65642C20636F6465203D2025642E50
:1007F0000D0A000048010020646576696365206188
:100800006464207265736F75726365284C45442972
:10081000206661696C65642C20636F6465203D20EF
:1008200025642E0D0A000000646576696365206109
:100830006464207265736F757263652874656D708A
:1008400029206661696C65642C20636F6465203DB6
:100850002025642E0D0A00006465766963652061B9
:100860006464207265736F757263652868756D695D
:1008700029206661696C65642C20636F6465203D86
:100880002025642E0D0A0000646576696365206189
:100890006464207265736F7572636528696C6C752A
:1008A0006D6929206661696C65642C20636F6465DD
:1008B000203D2025642E0D0A00000000636F6E6E3F
:1008C000656374204F6E654E4554206661696C65A2
:1008D000642E0D0A00000000636F6E6E6563742065
:1008E0004F6E654E455420737563636573732E0DAB
:1008F0000A00000064657669636520737465702082
:100900006572726F722C20636F6465203D202564D0
:100910002E0D0A00636F6E6E6563742073657276C8
:100920006572206661696C65642E0D0A0000000026
:1009300033490143334A1160704770B500210023E9
:100940000F22C47804B32F4C246804F4E064C4F587
:10095000E064210AC1F10403CA40447804FA03F1B7
:100960008478144021430901274C0678A155047866
:1009700004F01F050124AC4005786D11AD0005F1B0
:10098000E025C5F8004109E0047804F01F050124C2
:10099000AC401E4D0678761145F8264070BD1C4AC5
:1009A0000A400243174B1B1F1A60704739B1154AA2
:1009B000121D12680243134B1B1D1A6006E0114AF8
:1009C000121D126882430F4B1B1D1A6070470428CA
:1009D00008D14FF0E021096941F004014FF0E02215
:1009E000116107E04FF0E021096921F004014FF0A7
:1009F000E022116170470248001D024908607047FB
:100A00000000FA050CED00E000E400E080E100E009
:100A100080FFFF1F10B50446CC48844208D1012155
:100A2000042000F02DFB0021042000F029FB46E00B
:100A3000C748844208D10121082000F021FB002191
:100A4000082000F01DFB3AE0C248844208D1012191
:100A5000102000F015FB0021102000F011FB2EE00B
:100A6000BD48844208D10121202000F009FB00216B
:100A7000202000F005FB22E0B848844208D1012183
:100A8000402000F0FDFA0021402000F0F9FA16E0C5
:100A9000B348844208D10121802000F0F1FA0021FE
:100AA000802000F0EDFA0AE0AE48844207D101212F
:100AB000801500F0E5FA0021A01500F0E1FA10BD64
:100AC00010B50121084600F0DBFA0021012000F0FA
:100AD000D7FA10BD2DE9F04102460025002600207E
:100AE00000230024002791F803C00CF00F0591F8B3
:100AF00003C00CF0100CBCF1000F03D091F802C041
:100B00004CEA050591F800C0BCF1000F31D0146823
:100B100000202BE04FF0010C0CFA00F3B1F800C0FC
:100B20000CEA03069E4220D183004FF00F0C0CFA12
:100B300003F7BC4305FA03FC4CEA040491F803C034
:100B4000BCF1280F06D14FF0010C0CFA00FCC2F8E2
:100B500014C00AE091F803C0BCF1480F05D14FF072
:100B6000010C0CFA00FCC2F810C0401C0828D1D3BC
:100B70001460B1F800C0BCF1FF0F34DD54680020F0
:100B80002EE000F1080C4FF0010808FA0CF3B1F860
:100B900000C00CEA03069E4221D183004FF00F0CE7
:100BA0000CFA03F7BC4305FA03FC4CEA040491F881
:100BB00003C0BCF1280F05D100F1080C08FA0CF8AD
:100BC000C2F8148091F803C0BCF1480F07D100F1BE
:100BD000080C4FF0010808FA0CF8C2F81080401C0D
:100BE0000828CED35460BDE8F0814FF6FF71018034
:100BF000022181700421C170704702460020936871
:100C00000B400BB1012000E00020704701468868CE
:100C100080B2704702460020D3680B400BB1012020
:100C200000E0002070470146C86880B2704701614B
:100C30007047416170470AB1016100E0416170474E
:100C4000C16070474FF480320A43826181618261E2
:100C500082698269704702460020434B18684FF64C
:100C60008073184040EA021008433F4B18607047F9
:100C70003E49C8617047F0B50A46002300240021B0
:100C8000002500F00046B6F1004F02D1364EF16962
:100C900001E0354E7168C0F3034583B200F440169D
:100CA000B6F5401F08D121F070612F4E766826F00E
:100CB00070662D4F7E6012E000F48016B6F5801F3E
:100CC00006D1032606FA05F4A14341F0706106E05F
:100CD000460D360103FA06F6B14341F0706122B1C8
:100CE000460D360103FA06F6314300F00046B6F130
:100CF000004F02D11C4EF16101E01B4E7160F0BD4E
:100D000030B500228B071C0F0F2303FA04F2164B99
:100D100008338C1053F824309343134C08348D104F
:100D200044F8253023468C1053F824308C07240FC8
:100D300000FA04F423430C4C08348D1044F8253099
:100D400030BD0A49DC3108607047000000080140EE
:100D5000000C014000100140001401400018014047
:100D6000001C014000200140000001400000204222
:100D7000DF48006840F00100DD490860084640682F
:100D8000DC490840DA49486008460068DA4908400A
:100D9000D74908600846006820F4802008600846AB
:100DA000406820F4FE0048604FF41F0088607047E0
:100DB000CF49096821F48031CD4A11601146096894
:100DC00021F480211160B0F5803F03D0B0F5802F71
:100DD0000ED106E0C649096841F48031C44A116069
:100DE00007E0C349096841F4A021C14A116000E04D
:100DF00000BF00BF704710B501460022002300204D
:100E00004A11012A02D1BA4C236806E0022A02D113
:100E1000B74C236A01E0B64C636A01F01F0201245B
:100E200094401C400CB1012000E0002010BD38B5FA
:100E3000002000900024002500BF3120FFF7DBFFD9
:100E400005460098401C00900098B0F5A06F01D0B6
:100E5000002DF2D03120FFF7CEFF08B1012400E0D1
:100E60000024204638BD01460020A14A106820F029
:100E7000F80040EAC10010607047A0490860704760
:100E8000024600209A4B586820F47C1042EA010385
:100E90001843974B58607047984908667047014659
:100EA0000020934A506820F00300084350607047C8
:100EB0008F48406800F00C007047014600208C4AC3
:100EC000506820F0F0000843506070470146002051
:100ED000874A506820F4E06008435060704701463C
:100EE0000020834A506820F4605040EAC1005060FE
:100EF000704729B17E4A527A02437D4B5A7204E010
:100F00007B4A527A82437A4B5A7270477B49D83176
:100F10000860704701460020754A506820F4404040
:100F20000843506070470021714A20321170704AA6
:100F300082F82010012802D004280AD104E00121FF
:100F40006B4A2032117005E00521694A2032117088
:100F500000E000BF00BF70476949086070476449FE
:100F6000096A0143624A1162704765494439086061
:100F7000704730B500210022002400235C4D6D68CD
:100F800005F00C0121B1042905D0082923D105E081
:100F90005C4D056022E05C4D05601FE0544D6D68BE
:100FA00005F47012524D6D6805F48034022505EB8E
:100FB00092421CB9554D554305600BE04C4D6D6890
:100FC00005F400351DB1524D5543056002E04E4D0C
:100FD0005543056002E04B4D056000BF00BF444D26
:100FE0006D6805F0F00109094A4D6B5C0568DD404C
:100FF00045603F4D6D6805F4E061090A454D6B5C45
:101000004568DD4085603A4D6D6805F46051C90A58
:10101000404D6B5C4568DD40C560354D6D6805F43D
:101020004041890B3C4D6B5CC568B5FBF3F5056130
:1010300030BD29B12E4A526902432D4B5A6104E05A
:101040002B4A526982432A4B5A61704729B1284A78
:1010500092690243264B9A6104E0254A92698243D1
:10106000234B9A61704729B1214AD2690243204B30
:10107000DA6104E01E4AD26982431D4BDA6170478F
:1010800029B11B4AD2680243194BDA6004E0184ABE
:10109000D2688243164BDA60704729B1144A12694C
:1010A0000243134B1A6104E0114A12698243104B48
:1010B0001A61704712494039086070470F49C86487
:1010C00070470B49C87170470948406A40F080700A
:1010D00007494862704701460020054A92680A4065
:1010E0000AB1012000E00020704701498872704772
:1010F000001002400000FFF8FFFFF6FE0000424231
:101100008004424200127A00001BB70000093D0033
:10111000808D5B003C0000204C00002010B5044690
:10112000FB48844209D101218803FFF7A9FF002170
:101130004FF48040FFF7A4FF32E0F648844209D123
:1011400001214804FFF7A9FF00214FF40030FFF709
:10115000A4FF25E0F048844209D101218804FFF76B
:101160009CFF00214FF48020FFF797FF18E0EB4829
:10117000844209D10121C804FFF78FFF00214FF4F9
:101180000020FFF78AFF0BE0E548844208D10121E7
:101190000805FFF782FF00214FF48010FFF77DFF65
:1011A00010BD2DE9F04786B005460E460024A24644
:1011B00000BFA1460027B08900B100BF2F462C8A8E
:1011C0004CF6FF700440F08804432C82AC894EF644
:1011D000F3100440B08831890843718908430443FF
:1011E000AC81AC8A4FF6FF400440B0890443AC8226
:1011F00001A8FFF7BEFEC648874202D1DDF810A065
:1012000001E0DDF80CA0A88900F4004040B10AEB31
:10121000CA0000EB0A1031684900B0FBF1F807E0A2
:101220000AEBCA0000EB0A1031688900B0FBF1F844
:101230006420B8FBF0F004012009642101FB10894F
:10124000A88900F4004040B1322000EBC900B0FB97
:10125000F1F000F00700044308E0322000EB091031
:101260006421B0FBF1F000F00F0004432C8106B0C4
:10127000BDE8F0874FF41651016000218180C180E4
:1012800001810C21418100218181704710B5024606
:101290000020108A4FF2FF0318400B884C8823432C
:1012A0008C882343CC8823431843108210BD00212F
:1012B000018041808180C180704721B1828942F4E0
:1012C0000052828104E082894DF6FF731A408281C8
:1012D0007047F0B50346002400260025002040F6A4
:1012E0006A17B94200D100BF1846C1F3421401F099
:1012F0001F06012707FA06F5012C01D10C3004E086
:10130000022C01D1103000E014301AB107682F43CD
:10131000076002E00768AF430760F0BD1AB1838A37
:101320000B43838202E0838A8B4383827047028A65
:101330004FF6F0731A400282028A0A430282704713
:1013400082894FF2FF731A40828182890A43828127
:10135000704721B1828942F00202828104E08289D1
:101360004FF6FD731A4082817047028A4FF6DF7391
:101370001A400282028A0A430282704721B1028A1D
:1013800042F48042028204E0028A4BF6FF731A4064
:1013900002827047C1F30802828070470146888844
:1013A000C0F308007047818941F0010181817047D5
:1013B000028BD2B20283028B42EA0122028370477F
:1013C000028B02F47F420283028B0A43028370473E
:1013D00021B1828A42F02002828204E0828A4FF6A2
:1013E000DF731A408282704721B1828A42F0100274
:1013F000828204E0828A4FF6EF731A40828270473D
:1014000021B1828A42F00802828204E0828A4FF689
:10141000F7731A408282704721B1828942F40042F8
:10142000828103E08289C2F30E028281704721B17A
:10143000828A42F40062828204E0828A4FF2FF7361
:101440001A4082827047828A4FF6FB731A4082826A
:10145000828A0A438282704721B1828A42F0020264
:10146000828204E0828A4FF6FD731A4082827047BE
:1014700002460020B1F5007F00D100BF13880B4069
:101480000BB1012000E00020704701F40072B2F5BA
:10149000007F00D100BFCA430280704770B502468A
:1014A000002400230025002040F66A16B14200D136
:1014B00000BFC1F3421501F01F03012606FA03F332
:1014C000012D02D19689334006E0022D02D1168A01
:1014D000334001E0968A33400C12012606FA04F4E8
:1014E0001688344013B10CB1012000E0002070BD1B
:1014F00010B50022002340F66A14A14200D100BFBB
:101500000A1201249440A3B2DC43048010BD000001
:10151000003801400044004000480040004C0040BA
:101520000050004070B50546002400BF12E03E4860
:1015300010F8340060B901203B4901F83400084636
:1015400000EBC4004560284600F070F8204670BDEE
:10155000601C44B20A2CEADB4FF0FF30F7E72DE9BC
:10156000F04704460E4617460025A846A946002C1B
:1015700001DB0A2C03DB4FF0FF30BDE8F0872A497E
:1015800001EBC401486800F05FF8054615B96FF03B
:101590000100F2E7244800EBC40040680088801E88
:1015A0001FFA80F94E4501DD484600E0304680468E
:1015B000A5F80080AD1C42463946284605F064F87F
:1015C0000020DAE72DE9F047054688460027002687
:1015D000B1460024002D01DB0A2D03DB4FF0FF3064
:1015E000BDE8F087104800EBC5004468002616E00F
:1015F0006068805D88B12188A06806FB0107388893
:101600000FFA80F94A46B91C404605F03DF83946C4
:10161000204600F02FF84846E2E7701CC6B260880A
:10162000B042E5DC0020DBE75801002010B504469D
:101630006188606805F041F82288638802FB03F145
:10164000A06805F03AF810BD014600220DE0486898
:10165000805C48B94868805C401C4B6898540B8893
:10166000886802FB03007047521C48889042EEDCF9
:101670000020F8E730B502460B469468002110E0E0
:101680009C420BD15068405C002804DD5068405CEF
:10169000401E556868545068405C30BD1088044452
:1016A000491C50888842EBDCFF20F6E710B5024663
:1016B0009068884208D853881488906803FB040017
:1016C000884201D9012010BD0020FCE70160531EB3
:1016D00083800023C3800381704710B50446002037
:1016E000E0802081A188206804F0E7FF10BD10B5DC
:1016F0000246D0881389C01A93881840984201D1B5
:10170000002010BDD48813681955D088401C9388D8
:101710001840D0800120F4E70146C8880B89C01A20
:101720008B881840002809DD0B890868C25C08898D
:10173000401C8B8818400881104670474FF0FF30DE
:10174000FBE701468888401C70470146C8880A8923
:10175000801A8A8810407047764B1860764B196063
:10176000764B1A6070472DE9FF5F0646894617469B
:101770001C46DDF838A04FF00008C3460020039057
:101780000290002501906B48006828B16A48006803
:1017900010B16A48006818B9022004B0BDE8F09F93
:1017A000002066490968087063480068FFF795FFE4
:1017B000314663A005F0D0FD304604F0A7FF014696
:1017C000009030465B4A1268904703F014F9834654
:1017D0005BE00298504508D9681CC0B20546A0429B
:1017E00001DD0020D9E7012001905448006800780D
:1017F000012828D150480068016854A005F0ACFDCC
:1018000000204E49096808704B4909680868494634
:1018100004F06AFF8046B8F1000F04D04648006823
:10182000FFF75BFF32E04449096808684AA104F009
:101830005BFF804640480068FFF74FFFB8F1000F9C
:1018400008D00220A9E703F0D6F803900398A0EB94
:101850000B0002900198012817D1002001900290FE
:1018600003F0C9F88346002D0FDD601C85420CDAB9
:1018700031463BA005F070FD304604F047FF0146BD
:10188000009030462B4A12689047A2E700BF3846C6
:1018900003F011F8012080E72DE9F05F04468A4645
:1018A00015464FF0000900260027B0462148006881
:1018B00028B12148006810B12048006808B9BDE887
:1018C000F09F00201D49096808701B480068FFF759
:1018D00004FF214626A005F03FFD204604F016FF38
:1018E000834659462046134A1268904703F083F80E
:1018F000064618E0B8F1020F00D915E00F4800685D
:10190000007801280AD100200C49096808700A48AB
:101910000068016819A005F01FFD05E003F06BF8F1
:101920000746A7EB0608E5E700BF284602F0C3FF1D
:1019300000BFC4E7500000205800002054000020E1
:10194000636D643A25730D0A00000000636D645FE7
:101950007273703A257300004552524F52000000D6
:10196000726574727920636D643A2573000000001B
:10197000446174613A25730D0A000000646174616A
:101980005F7273703A25730D0A00000001684FF60C
:10199000FE72114001600021016041608160C16000
:1019A0008D49884208D18C490839496841F00F01B6
:1019B000894A083A51608AE087491431884208D13F
:1019C00085490839496841F0F001834A083A516075
:1019D0007DE081492831884208D17F49083949682A
:1019E00041F470617C4A083A516070E07A493C31B8
:1019F000884208D178490839496841F47041764AEB
:101A0000083A516063E074495031884208D1724904
:101A10000839496841F470216F4A083A516056E02C
:101A20006D496431884208D16B490839496841F4ED
:101A30007001694A083A516049E067497831884243
:101A400008D165490839496841F07061624A083A2D
:101A500051603CE06149884206D1011F096841F0AC
:101A60000F01021F116032E05C491431884208D135
:101A70005A49091F096841F0F001584A121F1160C4
:101A800025E056492831884208D15449091F096880
:101A900041F47061514A121F116018E04F493C3106
:101AA000884208D14D49091F096841F470414B4AE9
:101AB000121F11600BE049495031884207D1474954
:101AC000091F096841F47021444A121F11607047D0
:101AD00010B50022026847F6F0739A430C6A8B68CF
:101AE00023430C6923434C6923438C692343CC690A
:101AF00023434C6A23438C6A23431A430260CB6816
:101B000043600B6883604B68C36010BD00210160B7
:101B100041608160C160016141618161C1610162B7
:101B200041628162704721B1026842F001020260A5
:101B300004E002684FF6FE731A40026070471AB163
:101B400003680B43036002E003688B430360704744
:101B5000416070470146486880B2704701460020E6
:101B6000002201F080531BB11C4B083B1A6802E0B5
:101B7000194B083B1A6802EA01030BB1012000E08F
:101B80000020704700F0805119B11449091F086006
:101B900002E01149083948607047014600200022E0
:101BA00001F080531BB10D4B083B1A6802E00A4B51
:101BB000083B1A6802EA01030BB1012000E0002093
:101BC000704700F0805119B10449091F086002E014
:101BD0000149083948607047080002400804024083
:101BE00000B587B0012144F20400FFF72FFA4FF44B
:101BF0000070ADF8180018208DF81B0003208DF838
:101C00001A0006A98D48FEF765FF4FF48060ADF815
:101C1000180004208DF81B0006A98848FEF75AFF1B
:101C20004FF4E13002900020ADF80C00ADF80E004A
:101C3000ADF81000ADF814000C20ADF8120002A9A8
:101C40007F48FFF7AEFA01217D48FFF736FB0122FE
:101C500040F225517A48FFF73CFB25208DF804001F
:101C600003208DF805008DF8060001208DF807008F
:101C700001A8FEF762FE07B000BD2DE9F04107465E
:101C80000C46154600260CE014F8011B3846FFF7F9
:101C900081FB00BF40213846FFF7EAFB0028F9D05E
:101CA000761CAE42F0D3BDE8F08170B504460D4617
:101CB000E1B26348FFF76EFB00BF80216048FFF789
:101CC000D7FB0028F9D0204670BD0FB430B5CBB09B
:101CD000054601AC50A8009001A8009A4F9905F064
:101CE0005FFB002000900BE014F8011B2846FFF773
:101CF00051FB00BF40212846FFF7BAFB0028F9D06E
:101D000020780028F0D14BB030BC5DF814FB10B542
:101D100086B0044601210420FFF798F90121480408
:101D2000FFF7A1F918208DF817000420ADF8140072
:101D300003208DF8160005A94048FEF7CBFE0420CD
:101D40008DF817000820ADF8140003208DF8160058
:101D500005A93A48FEF7BEFE01940020ADF8100038
:101D60000C20ADF80E000020ADF80C00ADF80A0014
:101D7000ADF8080001A93348FFF713FA01213148F3
:101D8000FFF79BFA26208DF8000001208DF8030054
:101D900000208DF801008DF802006846FEF7CDFDA9
:101DA00006B010BD10B586B0044601211020FFF723
:101DB0004DF90121C804FFF756F918208DF81700D6
:101DC0004FF48060ADF8140003208DF8160005A9CB
:101DD0001D48FEF77FFE04208DF817004002ADF885
:101DE000140003208DF8160005A91748FEF772FEAF
:101DF00001940020ADF810000C20ADF80E0000207A
:101E0000ADF80C00ADF80A00ADF8080001A90F48C4
:101E1000FFF7C7F901210D48FFF74FFA34208DF87D
:101E2000000001208DF8030000208DF801008DF8DE
:101E300002006846FEF781FD06B010BD00080140B3
:101E4000003801400044004000100140004C0040B8
:101E500030B58BB004460D46A049C8680021FFF795
:101E600062FE9F480090019410200290039500208C
:101E70000490802005904000069000200790089074
:101E80004FF44050099000200A909449C868694670
:101E9000FFF71EFE9149C8680121FFF744FE0020AC
:101EA000904908700BB030BD00B591B001210846D3
:101EB000FFF7BFF801210820FFF7C8F801218804C7
:101EC000FFF7D1F88648001FFFF728F94FF480602C
:101ED000ADF8400003208DF8420018208DF8430033
:101EE00010A98148FEF7F6FD4FF40060ADF8400000
:101EF00004208DF8430010A97B48FEF7EBFD4FF45A
:101F000016500C900020ADF83400ADF83600ADF856
:101F10003800ADF83C000C20ADF83A004FF40072E8
:101F200072497348FFF7D2FB4FF40072714972484F
:101F3000FFF7CCFB7148FFF7F5FA71490870694A61
:101F40006D49AFF2F300FFF707FC0CA96448001FCE
:101F5000FFF727F927208DF82C0000208DF82D00A1
:101F600001208DF82E008DF82F000BA8FEF7E5FC60
:101F70006449C868FFF70AFD594800905B48019022
:101F8000002002904FF40070039000200490802005
:101F9000059000200690079008904FF4005009909B
:101FA00000200A905749C8686946FFF791FD5549D6
:101FB000C8680121FFF7B7FD012240214848001FF2
:101FC000FFF7ACF9012280214548001FFFF7A6F971
:101FD000012240F224414248001FFFF77AF9012113
:101FE0003F48001FFFF769F911B000BD70B500262A
:101FF0003B48001F008800F00F0010B138480488EB
:1020000060E03748001F008800F01000002859D019
:102010003348001F0488001D04883A49C86800211D
:10202000FFF781FD3749C868FFF794FDC0F50070E0
:102030002F49C880086834A104F056FB061E13D04F
:102040002B49086832A104F04FFB061E0CD128482A
:10205000FFF77BFB85B2264829460268284890F99D
:102060000000FFF77CFA2AE0214908682BA104F060
:102070003BFB061E03D0002000F06EF81FE01C4959
:10208000086829A104F030FB061E03D0012000F0EF
:1020900063F814E0012013490870154800891649B7
:1020A00008811348C088C8801148FFF74EFB0546D9
:1020B0000F4A1168104A10682A4604F0E5FA0C48E5
:1020C000FFF70BFB0F49C8684FF40071FFF740FDA5
:1020D0000C49C8680121FFF726FD70BD840000206F
:1020E000044800405C000020000C0140C0010020BA
:1020F000A8010020C0030020B401002068000020D7
:102100005D000020740000202B4D49504C00000061
:102110002B4D49504C435245415445002B434552A9
:1021200045473A30000000002B43455245473A31BD
:102130000000000010B50446012C00D100E0002092
:10214000024680214248FEF776FD0CB1012000E0F6
:1021500000204049C87010BD10B50446012C00D1C4
:1021600000E00020024640213948FEF764FD0CB132
:10217000012000E000203749887010BD10B50446EA
:10218000012C00D100E00020024620213048FEF75B
:1021900052FD0CB1012000E000202E49487010BD16
:1021A00010B50446012C00D100E0002002461021A9
:1021B0002748FEF740FD0CB1012000E00020254932
:1021C000087010BD08B501210420FEF73FFF102064
:1021D0008DF80300F020ADF8000003208DF8020018
:1021E00069461B48FEF776FC0020FFF7D9FF002068
:1021F000FFF7C4FF0020FFF7AFFF0020FFF79AFFB3
:1022000008BD10B504460020FFF7CAFF204602F0C3
:1022100052FB0120FFF7C4FF0020FFF7AFFF20466D
:1022200002F049FB0120FFF7A9FF0020FFF794FF10
:10223000204602F040FB0120FFF78EFF0020FFF751
:1022400079FF204602F037FB0120FFF773FF10BD36
:1022500000080140940000201CB50020019000906F
:102260004FF4967002F0DFFA01AA0021532000F02B
:1022700083FE4FF4967002F0D6FA2B2000906A4647
:102280003121532000F04AFE322002F0CCFA0A201D
:1022900000906A462C21532000F040FE322002F0CC
:1022A000C2FA282000906A462D21532000F036FE05
:1022B000322002F0B8FA002000906A462E21532006
:1022C00000F02CFE322002F0AEFA6A461E215320A6
:1022D00000F024FE322002F0A6FA6A461F215320A5
:1022E00000F01CFE322002F09EFA6A4620215320A4
:1022F00000F014FE4FF4FA7002F095FA1CBD2DE9BF
:10230000FE4300200290052000F000FDC82002F0EE
:102310008AFA02AA0021532000F02EFEC82002F003
:1023200082FA06236A463221532000F094FE9DF87B
:1023300000009DF8011000EB012000B23249088036
:102340009DF802009DF8031000EB012000B22E4919
:1023500048809DF804009DF8051000EB012000B2B4
:1023600029498880B1F9000004F077FB804604F029
:10237000DCFB0646254A264B04F08EFA044604F0A0
:10238000E7FB21498860B1F9020004F066FB804652
:1023900004F0CBFB06461D4A1D4B04F07DFA0446B3
:1023A00004F0D6FB1849C860B1F9040004F055FBED
:1023B000804604F0BAFB0646144A154B04F06CFA4A
:1023C000044604F0C5FB10490861886804F0ADFBC1
:1023D000044622460B460FA004F0BEFF0A49C86817
:1023E00004F0A3FB044622460B4610A004F0B4FF01
:1023F0000549086904F099FB044622460B4611A0E2
:1024000004F0AAFFBDE8FE83D0150020DE718A8E9D
:10241000E4F26F3F204144583334352D582069731E
:10242000203A20256620670D0A000000204144580C
:102430003334352D59206973203A20256620670DE5
:102440000A000000204144583334352D5A20697366
:10245000203A20256620670D0A000000FA4908800E
:10246000704708B501210820FEF7F0FD14208DF813
:1024700003004FF44050ADF8000003208DF8020037
:102480006946F248FEF726FB0220FFF7E7FF4FF40C
:102490008051EE48FEF7CBFB4FF40051EB48FEF7BE
:1024A000C6FB08BD10B54FF48051E848FEF7BFFBEE
:1024B0004FF40051E548FEF7BAFBE349088802F003
:1024C000B2F94FF48051E148FEF7B3FBDE490888CA
:1024D00002F0A9F94FF40051DC48FEF7AAFB10BD49
:1024E00010B54FF48051D948FEF7A3FB4FF40051CB
:1024F000D648FEF79EFBD449088802F094F94FF4C1
:102500000051D248FEF793FB4FF48051CF48FEF7BD
:102510008EFBCD49088802F086F910BD10B504463F
:102520004FF48051C948FEF782FBC749088802F082
:102530007AF94FF40051C548FEF779FBC249088883
:1025400002F071F90DE0601E041E06D0C0A004F078
:1025500003FFFFF7C5FF012010BDBB49088802F04B
:1025600062F94FF48051B948FEF747FB0028EAD1E1
:102570004FF40051B548FEF75CFB0020ECE710B5C6
:102580004FF40051B148FEF754FB4FF48051AF486F
:10259000FEF74FFBAC49088802F045F94FF40051B3
:1025A000AA48FEF744FBA849088802F03CF94FF41A
:1025B0000051A648FEF73DFB10BD10B54FF4005189
:1025C000A248FEF736FB4FF48051A048FEF72FFBE0
:1025D0009D49088802F027F94FF400519B48FEF707
:1025E00026FB9949088802F01EF94FF400519748DC
:1025F000FEF71FFB10BD70B5044600254FF40051D7
:102600009248FEF716FB23E004F0800028B14FF457
:1026100080518E48FEF70BFB04E04FF480518B484D
:10262000FEF707FB6006040E8749088802F0FBF8F6
:102630004FF400518548FEF7FAFA8349088802F002
:10264000F2F84FF400518148FEF7F3FA681CC5B266
:10265000082DD9DB70BD70B5002500244FF48051E2
:102660007A48FEF7E4FA1DE04FF400517748FEF790
:10267000E0FA7549088802F0D6F84FF40051734823
:10268000FEF7D5FA6006040E4FF480516F48FEF74E
:10269000B4FA08B1601CC4B26B49088802F0C3F8F0
:1026A000681CC5B2082DDFDB204670BD2DE9F04166
:1026B00005460E46144600276806070EFFF7F2FE91
:1026C0003846FFF798FF41F28830FFF727FF10B137
:1026D0000120BDE8F0813046FFF78DFF41F28830E0
:1026E000FFF71CFF08B10120F3E74CB12046FFF7CC
:1026F00082FF41F28830FFF711FF08B10120E8E7BF
:10270000FFF7EEFE0020E4E72DE9F04104460D4618
:10271000164600276006070EFFF7C4FE3846FFF78F
:102720006AFF41F28830FFF7F9FE10B10120BDE8E1
:10273000F0812846FFF75FFF41F28830FFF7EEFE99
:1027400008B10120F3E7FFF7ADFE791CC8B2FFF72F
:1027500052FF41F28830FFF7E1FE08B10120E6E7C1
:10276000FFF779FF3070FFF728FFFFF7B9FE002071
:10277000DDE72DE9F04105460E4614461F464FF0B1
:10278000000868064FEA1068FFF78CFE4046FFF726
:1027900032FF41F28830FFF7C1FE10B10120BDE8E1
:1027A000F0813046FFF727FF41F28830FFF7B6FE91
:1027B00008B10120F3E70DE02078FFF71CFF41F29C
:1027C0008830FFF7ABFE08B10120E8E7641C0A205F
:1027D00002F029F8381EA7F10101CFB2ECD1FFF7C2
:1027E0007FFE0020DBE72DE9F04106460F46144648
:1027F0001D464FF000084FEA4608FFF753FE08F069
:10280000FF00FFF7F8FE41F28830FFF787FE10B1B6
:102810000120BDE8F0813846FFF7EDFE41F2883037
:10282000FFF77CFE08B10120F3E7FFF73BFE08F15C
:102830000101C8B2FFF7DFFE41F28830FFF76EFEFC
:1028400080B10120E5E70000A0000020000C01405D
:102850005761697441636B2054696D654F75740DE0
:102860000A00000009E0FFF7F6FE2070641C15B9AD
:10287000FFF7A3FE01E0FFF782FE281EA5F101018C
:10288000CDB2F0D1FFF72CFE0020C2E710B5044610
:10289000FFF708FE4620FFF7AEFE41F28830FFF753
:1028A0003DFE08B1012010BDE0B2FFF7A4FE41F2E9
:1028B0008830FFF733FE08B10120F4E7FFF710FE80
:1028C00041F2883001F0AFFF0020ECE710B50120A5
:1028D000FFF7DCFF0720FFF7D9FF2020FFF7D6FF27
:1028E00010BD10B5FFF7DEFD4720FFF784FE41F273
:1028F0008830FFF713FE08B1012010BDFFF7ABFED3
:1029000023490870FFF73BFEFFF7A5FE20494870FA
:10291000FFF753FEFFF7E4FD41F2883001F083FF3B
:102920000020EAE72DE9F0411948007819490880AC
:1029300017484078097800EB0120164908800846BE
:10294000008804F093F8804604F0EFF806464FF054
:102950003332114B04F012F8044604F0F9F80F4931
:1029600008600846006804F0E0F8044622460B467A
:102970000BA004F0F1FCBDE8F08110B5FFF7A6FF55
:10298000C82001F098FFFFF7ACFFFFF7CBFF10BDA9
:102990009C0000209E0000203333F33F980000206D
:1029A00042483137353020444154412069733A2040
:1029B0002566204C55580D0A000000002DE9F04115
:1029C0000746FFF76FFDEE20FFF715FE41F2883056
:1029D000FFF7A4FD10B10120BDE8F0813846FFF7F4
:1029E0000AFE41F28830FFF799FD08B10120F3E7B4
:1029F000FFF758FDEF20FFF7FEFD41F28830FFF7AB
:102A00008DFD08B10120E7E7FFF725FE0446FFF73B
:102A1000B6FDFFF720FE0646FFF7CFFDFFF760FD8E
:102A200006EB042005B22846D6E710B5AA20FFF72A
:102A3000C5FFAE490880AC20FFF7C0FFAB49488016
:102A4000AE20FFF7BBFFA9498880B020FFF7B6FF93
:102A5000A649C880B220FFF7B1FFA4490881B4207D
:102A6000FFF7ACFFA1494881B620FFF7A7FF9F49B8
:102A70008881B820FFF7A2FF9C49C881BA20FFF7E0
:102A80009DFF9A490882BC20FFF798FF974948822A
:102A9000BE20FFF793FF9549888210BD10B5002432
:102AA0002E22F4217720FFF701FE052001F003FF1D
:102AB000F620FFF783FF0446204610BD10B5002422
:102AC0003422F4217720FFF7F1FD052001F0F3FE19
:102AD000F620FFF773FF0446A4B2204610BD2DE98F
:102AE000FC5FFFF7DBFF81498861FFF7D7FF7F4974
:102AF0008861FFF7E3FF7D49C8610846806949891D
:102B0000401A7A4909894843C0137849086208463F
:102B1000006AB1F9141008447449B1F91210C902DD
:102B200091FBF0F0714948620846006A496A08441E
:102B30006E4948630846406B0830001148640846F7
:102B4000406BA0F57A6088630846806B40430013B1
:102B5000B1F90E104843C012644908620846B0F942
:102B60000200896B4843C012604948620846006A07
:102B7000496A08445D4988628A6AB1F9001002EB2B
:102B80008101881CC11700EB91718910574AD162ED
:102B90001046B0F904001146896B484340131146B2
:102BA00008620846806B40430013B1F90C1048439B
:102BB0000014114648620846006A496A0844801CAD
:102BC0008010114688620846C088896A01F5004174
:102BD0004843C00B114608630846C069C96A401AD9
:102BE0004CF2503148431146C8630846C06BB0F1FF
:102BF000004F08D20846C06B4000096BB0FBF1F0F3
:102C00001146086408E03948C06B3849096BB0FBCD
:102C1000F1F04000354908643448006C001240432C
:102C2000324908620846006A40F6DE314843001423
:102C30002E4908620846006C2D49484300142B4970
:102C400048620846006A496A084400F6CF6027498E
:102C5000096C01EB201025490864086C03F00BFF98
:102C600080460022234B03F089FE0646224A234B6E
:102C700005F028F904460022214B03F00AFE8246A3
:102C80000022204B03F008FECDE9000103F060FFB5
:102C900016498864BDE8FC9FF0B585B004AAD02130
:102CA0007720FFF731FDFFF7C0FEFFF718FF0F4950
:102CB000886C03F03AFF06460F460C48406C0A2128
:102CC00090FBF1F201FB12040848406C90FBF1F517
:102CD0000648CDE90267006C23462A4600909DF81D
:102CE0001010094804F038FB05B0F0BDE4150020D1
:102CF00043E3FFFFD0BCF8406C45D9CC955BC83F9F
:102D00000000F03F40A5E540B8890008F44908807C
:102D1000704708B501210820FEF798F914208DF8B6
:102D20000300C020ADF8000003208DF802006946C2
:102D3000EC48FDF7CFFE0220FFF7E8FF8021E948CD
:102D4000FDF775FF4021E748FDF771FF08BD10B59D
:102D50008021E448FDF76BFF4021E248FDF767FF63
:102D6000DF49088801F05FFD8021DE48FDF761FF43
:102D7000DB49088801F057FD4021DA48FDF759FF8B
:102D800010BD10B58021D748FDF753FF4021D5482D
:102D9000FDF74FFFD249088801F045FD4021D14899
:102DA000FDF745FF8021CF48FDF741FFCC4908885A
:102DB00001F039FD10BD10B504468021C948FDF76A
:102DC00036FFC749088801F02EFD4021C548FDF7B0
:102DD0002EFFC349088801F026FD0DE0601E041E89
:102DE00006D0C1A004F0B8FAFFF7CBFF012010BD58
:102DF000BB49088801F017FD8021BA48FDF7FDFEA8
:102E00000028EBD14021B748FDF713FF0020EEE783
:102E100010B54021B348FDF70CFF8021B148FDF704
:102E200008FFAF49088801F0FEFC4021AD48FDF7DE
:102E3000FEFEAB49088801F0F6FC4021A948FDF7E9
:102E4000F8FE10BD10B54021A648FDF7F2FE802126
:102E5000A448FDF7ECFEA249088801F0E4FC4021FB
:102E6000A048FDF7E4FE9E49088801F0DCFC402103
:102E70009C48FDF7DEFE10BD70B5044600254021DC
:102E80009848FDF7D6FE1FE004F0800020B18021B5
:102E90009448FDF7CCFE03E080219248FDF7C9FE7F
:102EA0006006040E8E49088801F0BDFC40218D4863
:102EB000FDF7BDFE8A49088801F0B5FC402189482C
:102EC000FDF7B7FE681CC5B2082DDDDB70BD70B51F
:102ED0000025002480218348FDF7A9FE1AE0402147
:102EE0008048FDF7A6FE7E49088801F09CFC402141
:102EF0007C48FDF79CFE6006040E80217948FDF7B2
:102F00007CFE08B1601CC4B27549088801F08BFCD6
:102F1000681CC5B2082DE2DB204670BD2DE9F041EA
:102F200005460E46144600276806070EFFF70FFFFA
:102F30003846FFF7A1FF41F28830FFF73CFF10B1A0
:102F40000120BDE8F0813046FFF796FF41F288305E
:102F5000FFF731FF08B10120F3E74CB12078FFF70C
:102F60008BFF41F28830FFF726FF08B10120E8E728
:102F7000FFF707FF0020E4E72DE9F04104460D4686
:102F8000164600276006070EFFF7E1FE3846FFF7FA
:102F900073FF41F28830FFF70EFF10B10120BDE84A
:102FA000F0812846FFF768FF41F28830FFF703FF02
:102FB00008B10120F3E7FFF7CAFE791CC8B2FFF79A
:102FC0005BFF41F28830FFF7F6FE08B10120E6E72B
:102FD000FFF77DFF3070FFF735FFFFF7D2FE0020CF
:102FE000DDE72DE9F04105460E4614461F464FF039
:102FF000000868064FEA1068FFF7A9FE4046FFF791
:103000003BFF41F28830FFF7D6FE10B10120BDE84A
:10301000F0813046FFF730FF41F28830FFF7CBFEFA
:1030200008B10120F3E70DE02078FFF725FF41F21A
:103030008830FFF7C0FE08B10120E8E7641C0A20D1
:1030400001F0F1FB381EA7F10101CFB2ECD1FFF77F
:1030500098FE0020DBE72DE9F04106460F461446B6
:103060001D464FF000084FEA4608FFF770FE08F0D3
:10307000FF00FFF701FF41F28830FFF79CFE10B11F
:103080000120BDE8F0813846FFF7F6FE41F28830B6
:10309000FFF791FE08B10120F3E7FFF758FE08F1B2
:1030A0000101C8B2FFF7E8FE41F28830FFF783FE66
:1030B00008B10120E5E709E0FFF709FF2070641C73
:1030C00015B9FFF7BFFE01E0FFF7A2FE281EA5F12C
:1030D0000101CDB2F0D1FFF754FE0020D1E700008E
:1030E000A2000020000C01405761697441636B200D
:1030F00054696D654F75740D0A00000010B500220B
:10310000FE214020FFF70AFF10BD08B50020009007
:103110006A46E7214020FFF72FFF9DF8000008BD19
:1031200070B503460C46154600210026002200BF5C
:1031300013E0985C414008260BE001F0800020B1CC
:10314000312080EA4100C1B201E04806010E701E44
:10315000C6B2002EF1DC501CC2B2A242E9DBA94289
:1031600001D0012070BD0020FCE72DE9F84F824618
:103170004FF0000B2AF0030A504603F077FC009052
:1031800003F0D3FC8046A14AA14B03F085FB064621
:10319000A04AA14B03F0D9FA044603F0D9FC8346B8
:1031A0005846BDE8F88F2DE9F84F82464FF0000BE6
:1031B0002AF0030A504603F059FC009003F0B5FCD6
:1031C0008046964A964B03F067FB06460022954BD5
:1031D00003F05CFB044603F0BBFC83465846BDE8A5
:1031E000F88F2DE9F84306460C4600270025A8462F
:1031F000A9468025FFF7ABFD2846FFF73DFE4CF2C0
:103200005030FFF7D8FD10B10020BDE8F8833046FC
:10321000FFF732FE4CF25030FFF7CDFD08B1002031
:10322000F3E7FFF794FD691CC8B2FFF725FE05E040
:10323000FFF78DFD691CC8B2FFF71EFE4CF250303F
:10324000FFF7B9FD0028F3D1462001F034FBFFF76A
:103250003EFE8DF80000FFF7DBFDFFF738FE8DF82E
:103260000100FFF7D5FDFFF732FE0746FFF7EAFD45
:10327000FFF787FD3A4602216846FFF751FF9DF8A8
:1032800001009DF8001000EB01201FFA80F8E32EEA
:1032900004D14046FFF769FF814603E04046FFF74F
:1032A00082FF81461CB1484603F00AFC2080484654
:1032B000ABE73EB50446002002900520FFF726FD4F
:1032C000FFF723FF642001F0AEFA0021E320FFF7AF
:1032D00088FF0090462001F0EEFA0021E520FFF77C
:1032E00080FF0190192001F0E6FAFFF70EFF192088
:1032F00001F0E1FA02AAE6214020FFF70FFE642068
:1033000001F091FAFFF701FF642001F08CFAFFF75A
:10331000F5FE642001F087FADDE90001C4E900014F
:103320003EBD7FB56846FFF7C4FFDDE90001CDE98A
:103330000201029803F0F9FB044622460B463AA02C
:1033400004F00AF8039803F0F0FB044622460B460B
:1033500040A004F001F87FBD38B5002000900024A3
:103360000520FFF7D3FCFFF7D0FE642001F05BFAE5
:103370000021E320FFF735FF0446462001F09BFAC9
:10338000FFF7C3FE192001F096FA6A46E6214020B5
:10339000FFF7C4FD642001F046FAFFF7B6FE642093
:1033A00001F041FAFFF7AAFE642001F03CFA204642
:1033B00038BD38B50020009000240520FFF7A6FC9A
:1033C000FFF7A3FE642001F02EFA0021E520FFF7AD
:1033D00008FF0446192001F06EFAFFF796FE192047
:1033E00001F069FA6A46E6214020FFF797FD642064
:1033F00001F019FAFFF789FE642001F014FAFFF7D3
:103400007DFE642001F00FFA204638BDD7A3703D41
:103410000AF7653FCDCCCCCCCC6C47C07644CF7797
:1034200001405F3F000018405573617274312047BE
:10343000657420446174612C5348543230207765A0
:103440006E64752069733A200D0A25302E3166436B
:103450000D0A000055736172742047657420446141
:1034600074612C5348543230207368696475206944
:10347000733A200D0A25302E31660D0A0000000037
:1034800010B50446224601211548FDF7D4FB154826
:10349000047010BD08B501210820FDF7D7FD1020EC
:1034A0008DF803000120ADF8000003208DF8020024
:1034B00069460B48FDF70EFB0020FFF7E1FF08BD52
:1034C00010B504460120FFF7DBFF204601F0F3F9B9
:1034D0000020FFF7D5FF204601F0EDF910BD0000F8
:1034E000000C0140A400002008B501211020FDF7C8
:1034F000ADFD48208DF803000F20ADF8000003203B
:103500008DF8020069463D48FDF7E4FA08BD70B544
:1035100004460D463948844207D1A9B2FDF76DFB38
:1035200008B9012070BD0020FCE70020FAE710B5C3
:1035300001213248FFF7EBFF38B100BF01212F48CE
:10354000FFF7E5FF0028F9D110BD02212B48FFF756
:10355000DEFF40B100BF02212848FFF7D8FF002856
:10356000F9D10320F0E704212448FFF7D0FF40B150
:1035700000BF04212148FFF7CAFF0028F9D1062027
:10358000E2E708211D48FFF7C2FF40B100BF082154
:103590001A48FFF7BCFF0028F9D10920D4E7FF2023
:1035A000D2E710B5012416A003F0D6FE22E0052CC8
:1035B00000D120E0FFF7BBFF30B1032809D0062877
:1035C0000CD0092814D10EE012A003F0C5FE02248D
:1035D0000FE017A003F0C0FE03240AE01BA003F0D5
:1035E000BBFE042405E020A003F0B6FE052400E0A5
:1035F00000BF00BFDBE700BF10BD000000100140AE
:10360000C7EBD2C0B4CEB0B4CFC2BCFC31B5BD3470
:103610003A0D0A00B0B4BCFC31D2D1BEADB0B4CFCB
:10362000C2A3ACC7EBB0B4CFC2BCFC320D0A0000E1
:10363000B0B4BCFC32D2D1BEADB0B4CFC2A3ACC723
:10364000EBB0B4CFC2BCFC330D0A0000B0B4BCFC7C
:1036500033D2D1BEADB0B4CFC2A3ACC7EBB0B4CF00
:10366000C2BCFC340D0A0000B0B4BCFC34D2D1BEE4
:10367000ADB0B4CFC2A3ACB0B4BCFCB2E2CAD4CD3E
:10368000EAB1CF0D0A0000002DE9F04106460C46D4
:1036900090460027002500BF00BFB5E0F05D092877
:1036A0000BDCF05D002808DB30206055F05D303029
:1036B000C1B2681C05462154A4E0F05D0A280BDB6A
:1036C000F05D0F2808DC30206055F05D3730C1B266
:1036D000681C0546215495E0F05D0F28ECDBF05D99
:1036E000C11700EB1171091130316155605D30383F
:1036F000102839D2DFE800F0080B0E1114171A1D3C
:10370000202326292C2F3235302060552DE0312002
:1037100060552AE03220605527E03320605524E0D0
:103720003420605521E0352060551EE0362060557C
:103730001BE03720605518E03820605515E039202F
:10374000605512E0412060550FE0422060550CE0CA
:103750004320605509E04420605506E0452060554F
:1037600003E04620605500E000BF00BFF05DC117D8
:1037700000EB11710911A0EB01113031CAB2691CC3
:103780000D466254605D3038102839D2DFE800F011
:10379000080B0E1114171A1D202326292C2F323541
:1037A000302060552DE0312060552AE032206055F0
:1037B00027E03320605524E03420605521E0352097
:1037C00060551EE0362060551BE03720605518E03C
:1037D0003820605515E03920605512E041206055D1
:1037E0000FE0422060550CE04320605509E0442082
:1037F000605506E04520605503E04620605500E036
:1038000000BF00BF7F1C6D1CB5EB480FFFF646AF35
:10381000DDA1204602F05CFFBDE8F08170B50546F1
:103820000C466422DAA12846FEF736F8204670BD21
:1038300070B5ADF5806D05460C4600264FF48061ED
:10384000684602F03AFF6946D24890F90000FDF759
:10385000B9FE2080208868B1CFA1684602F044FFFD
:10386000061E05D022886946284602F00DFF01E0B9
:10387000002020800DF5806D70BD08B5012110205D
:10388000FDF7E4FB1020ADF800008DF803000320E5
:103890008DF802006946C248FDF71CF91021C048A6
:1038A000FDF7C5F908BD08B50A20002341F28832AA
:1038B000B7A10090BBA0FDF756FF052003234FF4EE
:1038C000FA62B3A10090BAA0FDF74DFF0A20FF23D2
:1038D00041F28832AEA10090B8A0FDF744FF0A2063
:1038E00000234FF4FA62AAA10090B7A0FDF73BFFB6
:1038F0000A2000234FF4FA62A5A10090B5A0FDF7BD
:1039000032FF0A2000234FF4FA62A1A10090B5A073
:10391000FDF729FF0520002340F6B8329CA1009056
:10392000B4A0FDF720FF0520002340F6B83298A18F
:103930000090B4A0FDF717FF0520E82340F6B83249
:10394000B4A10090B6A0FDF70EFF052000234FF4B0
:10395000FA628FA10090B5A0FDF705FF05200023B6
:103960004FF4FA628AA10090B3A0FDF7FCFEB6A066
:1039700003F0F2FCC820FFF7A3FDC820FFF7A0FD6D
:1039800008BD10B504462146B5A003F0E5FCBAA079
:1039900003F0E2FCBDA003F0DFFCC0A003F0DCFC00
:1039A000C1A003F0D9FCCFA003F0D6FCDBA003F04C
:1039B000D3FCE54803F0D0FCE4A003F0CDFCF248D2
:1039C00003F0CAFCF1A003F0C7FCFE4803F0C4FCFE
:1039D000FD4803F0C1FCFD4803F0BEFC6BA003F002
:1039E000BBFC10BD2DE9F04104460D4616461F46AE
:1039F0004FF0000806E0404608F10108215CF4A001
:103A000003F0AAFCA845F6DB3A463146F2A003F0E3
:103A1000A3FCBDE8F081F8B504460D461646F14911
:103A2000204602F07AFE4FF4967000230246EEA183
:103A300000902046FDF797FEF8BD70B5ADF5087D06
:103A400006460C46154600208DF800028DF801024E
:103A50008DF80202ADF8040282968494204602F0AA
:103A600055FE83908695284602F050FE85900520ED
:103A70008DF81C028DF81D0202208DF81E0280AA0E
:103A800001026846FFF7C7FF0DF5087D70BD2DE9FF
:103A9000FF4107460C4615461E46DDF828803221B8
:103AA000D54802F00AFE1122D4A1D34802F0ECFD61
:103AB0000A2201A9384601F073F801A9CE4802F0A4
:103AC00007FED3A1CC4802F003FE0A2201A920463A
:103AD00001F066F801A9C84802F0FAFDCCA1C64879
:103AE00002F0F6FDCBA1C44802F0F2FD2946C2481F
:103AF00002F0EEFDC7A1C04802F0EAFDC4A1BE4835
:103B000002F0E6FD0A2201A9304601F049F801A9B8
:103B1000B94802F0DDFDBEA1B74802F0D9FD0A2286
:103B200001A9404601F03CF801A9B34802F0D0FDDC
:103B300016A1B14802F0CCFD052000234FF4967287
:103B400013A10090AC48FDF70EFEBDE8FF811FB544
:103B500004463221A84802F0B0FD1122AEA1A648C9
:103B600002F092FD0A2201A9204601F019F801A9EC
:103B7000A14802F0ADFD05A19F4802F0A9FD052076
:103B800000234FF4967251E12C312C310D0A0000C4
:103B90004F4B00005D0000202B4D49504C000000B1
:103BA0000010014041542B4E52420D0A000000000B
:103BB00041542B43494D490D0A00000041542B4309
:103BC0004D5645520D0A000041542B434D45453D8D
:103BD000310D0A0041542B4353434F4E3D310D0AE2
:103BE0000000000041542B43455245473D320D0A29
:103BF0000000000041542B4345445258533D302CA3
:103C0000350D0A0041542B4350534D533D300D0A9E
:103C10000000000043455245473A322C3100000075
:103C200041542B43455245473F0D0A0041542B63F5
:103C300073710D0A0000000041542B4E554553543A
:103C40004154530D0A000000636F6E6E656374206B
:103C50004E422D496F54207375636573730D0A00CE
:103C600055736167653A202573205B4F5054494F67
:103C70004E5D0D0A000000004C61756E63682061A6
:103C800020636C69656E742E0D0A00007665727390
:103C9000696F6E3A2076312E320D0A004F707469CA
:103CA0006F6E733A0D0A00002D6220424F4F540987
:103CB000095365742074686520626F6F7473747241
:103CC0006170206D6F6465206F6620746865206385
:103CD0006C69656E742E44656661756C743A20304B
:103CE0000D0A00002D642044454255470953657470
:103CF00020746865206465627567206D6F64652057
:103D00006F662074686520636C69656E742E446507
:103D10006661756C743A20300D0A00002D652045EF
:103D20004E43525950540953657420746865206598
:103D30006E6372797074206F662074686520636C9E
:103D400069656E742E0D0A00B08B00082D6E204E32
:103D5000414D4509095365742074686520656E649A
:103D6000706F696E74206E616D655B696D65693B2E
:103D7000696D73695D206F662074686520636C6986
:103D8000656E742E0D0A00000C8C00082D742054F2
:103D9000494D45090953657420746865206C69664E
:103DA0006574696D65206F662074686520636C6951
:103DB000656E742E2044656661756C743A203330EC
:103DC000300D0A00608A0008188A0008B08A0008CE
:103DD00025303258000000002C25642C25640D0A83
:103DE000000000000C8B00082B4D49504C435245FD
:103DF0004154453A300000003016002041542B4D0C
:103E000049504C4144444F424A3D302C0000000090
:103E10002C0000002200000041542B4D49504C441E
:103E2000454C4F424A3D302C00000000AFF2A0212B
:103E30000090FA48FDF797FC1FBD2DE9FE430746A9
:103E40000C4615461E464FF00008062201A92846DA
:103E500000F0A6FE0F22F2A1384602F015FC01A9DF
:103E6000384602F035FCAFF25801384602F030FC1B
:103E7000062201A9304600F093FE01A9384602F05F
:103E800027FCAFF2F821384602F022FC052000237F
:103E90004FF49672AFF2083100903846FDF763FC9C
:103EA0008046B8F1020F09D1052000234FF4967225
:103EB000AFF2243100903846FDF755FC2046BDE8AE
:103EC000FE832DE9FE4380460C4615461E4600271C
:103ED000062201A9404600F063FE1122D4A1284623
:103EE00002F0D2FB01A9284602F0F2FBAFF2E0019A
:103EF000284602F0EDFB012201A9204600F050FE09
:103F000001A9284602F0E4FBAFF28031284602F016
:103F1000DFFB284602F0FAFB471CB7420CD2052013
:103F200000234FF49672AFF2983100902846FDF7C7
:103F30001AFC3846BDE8FE830020FBE7F8B50646CC
:103F40000D4600241124AC4210D22246BDA13046B9
:103F500002F09AFB052000234FF49672AFF2D031A5
:103F60000090B8A0FDF7FFFB2046F8BD0020FCE75D
:103F70002DE9FE4F04460E4615461F46DDE90C8925
:103F80004FF48061A54802F098FB1322B2A1A34828
:103F900002F07AFBB4F900000A22694600F000FE44
:103FA00069469E4802F094FBAFF29C119B4802F0D8
:103FB0008FFBB4F902000A22694600F0F1FD694660
:103FC000964802F085FBAFF2B811944802F080FBEE
:103FD000B4F904000A22694600F0E2FD69468F4800
:103FE00002F076FBAFF2D8118C4802F071FB01228F
:103FF0006946304600F0D4FD6946884802F068FB07
:10400000AFF2F411854802F063FB284602F07EFB14
:1040100082460A22694600F0C3FD69467F4802F0E5
:1040200057FBAFF214217D4802F052FBAFF21C2186
:104030007A4802F04DFB2946784802F049FBAFF27E
:104040002C21764802F044FBAFF23C21734802F089
:104050003FFB01226946404600F0A2FD69466F48D9
:1040600002F036FBAFF258216C4802F031FB01221E
:104070006946384600F094FD6946684802F028FB1E
:10408000AFF2F841654802F023FB78A003F064F931
:10409000624979A003F060F96422AFF20C515F48E5
:1040A000FDF7FAFBBDE8FE8F2DE9FE4F04460E46F4
:1040B00015461F46DDE90D9ADDF830804FF480612A
:1040C000564802F0FAFA12226DA1544802F0DCFAC6
:1040D0000A226946384600F063FD69464F4802F0FF
:1040E000F7FA6BA14D4802F0F3FA0A2269464046FE
:1040F00000F056FD6946494802F0EAFA64A14748D3
:1041000002F0E6FAB4F900000A22694600F048FD20
:104110006946424802F0DCFA5DA1404802F0D8FA54
:10412000B4F902000A22694600F03AFD69463B48AC
:1041300002F0CEFA56A1394802F0CAFAB4F90400E6
:104140000A22694600F02CFD6946344802F0C0FAA4
:104150004FA1324802F0BCFA01226946304600F015
:104160001FFD69462D4802F0B3FA49A12B4802F021
:10417000AFFA284602F0CAFA83460A22694600F0DE
:104180000FFD6946254802F0A3FA41A1234802F039
:104190009FFAAFF28031214802F09AFA29461F486F
:1041A00002F096FAAFF294311C4802F091FA38A16D
:1041B0001A4802F08DFA0A226946484600F0F0FCDF
:1041C0006946164802F084FA31A1144802F080FAD8
:1041D00001226946504600F0E3FC69460F4802F0B0
:1041E00077FAAFF258610D4802F072FA29A003F095
:1041F000B3F80A4920A003F0AFF86422AFF270616F
:104200000648FDF749FBBDE8FE8F3EB505460C4666
:104210003221024802F051FA132241E03016002008
:1042200041542B4D49504C4F50454E3D302C0000D1
:1042300041542B4D49504C5550444154453D302C30
:104240000000000041542B4D49504C434C4F534506
:104250003D300D0A0000000041542B4D49504C4E9A
:104260004F544946593D302C302C000073656E6424
:1042700020646174613A000025730D0A000000009B
:1042800041542B4D49504C524541445253503D30BE
:104290002C00000072656164207273703A000000A7
:1042A00060A1654802F0F0F90A226946204600F054
:1042B00077FC6946604802F00BFAAFF22C015E48C9
:1042C00002F006FA01226946284600F069FC6946B8
:1042D000594802F0FDF9AFF24C71574802F0F8F975
:1042E00056A003F039F85449AFF2740003F034F8E3
:1042F0006422AFF264715048FDF7CEFA3EBD3EB580
:1043000005460C4632214C4802F0D7F915224EA141
:10431000494802F0B9F90A226946204600F040FCFB
:104320006946454802F0D4F9AFF29C01424802F0D8
:10433000CFF901226946284600F032FC69463E4822
:1043400002F0C6F9AFF2BC713B4802F0C1F944A0DB
:1043500003F002F83849AFF2E00002F0FDFF6422FA
:10436000AFF2D4713448FDF797FA3EBDFEB505466D
:104370000C463221304802F0A0F916223CA12E480A
:1043800002F082F90A226946284600F009FC6946D3
:10439000294802F09DF93CA1274802F099F92046EE
:1043A00002F0B4F9861E0A226946304600F0F8FB96
:1043B0006946214802F08CF932A11F4802F088F9C1
:1043C00021461D4802F084F9AFF640011A4802F078
:1043D0007FF92EA002F0C0FF1749AFF2641002F07F
:1043E000BBFF6422AFF658011348FDF755FAFEBD36
:1043F000F8B506460D4600240F24AC4210D22246E2
:1044000026A1304602F040F9052000234FF49672B1
:10441000AFF68401009021A0FDF7A5F92046F8BD74
:104420000020FCE741542B4D49504C57524954450C
:104430005253503D302C00003016002077726974C2
:1044400065207273703A000041542B4D49504C4521
:104450005845435554455253503D302C0000000000
:1044600065786563757465207273703A00000000AA
:1044700041542B4D49504C444953434F5645525299
:1044800053503D302C0000002C312C0064697363C4
:104490006F766572207273703A00000041542B4DA4
:1044A00049504C44454C3D300D0A000010B5FDF715
:1044B00089FEFEF7EFFFFFF717F8FEF72AFCFDF77E
:1044C000D0FFFDF7C9FE10BD70B504460D463A4851
:1044D0000078002864D100F097FAFFF7CEF9FDF7D5
:1044E0007FFBFDF7E1FCFFF7E1FF4FF4E130FDF763
:1044F0000EFC4FF4E130FDF755FC30A13348FDF7D9
:10450000E4FB33A13648FDF7E0FB36A13948FDF75F
:10451000DCFB39A13C48FDF7D8FB4FF4FA70FEF7FD
:10452000CFFFFFF73EF84FF4FA70FDF76AFE37A0B1
:1045300002F012FFFEF7F5FE0020FDF731FE3DA070
:1045400002F00AFF44A002F007FFFEF716FA00206F
:10455000FDF714FE4AA002F0FFFE52A002F0FCFE9E
:10456000FDF7CDFE0020FDF7F7FD58A002F0F4FEA8
:1045700060A002F0F1FEFEF78FFB0020FDF7DAFDF0
:1045800066A002F0E9FE4FF47A7000F094F941F26F
:10459000883000F090F9FFF786F90120064908708D
:1045A00070BD0548007810B10020034908707047BD
:1045B00010B5FCF720FA10BDA50000204920616D60
:1045C00020555341525431210D0A0000003801405A
:1045D0004920616D20555341525432210D0A00008B
:1045E000004400404920616D20555341525433210D
:1045F0000D0A0000004800404920616D20554152DD
:104600005434210D0A000000004C00402E2E2E2EA6
:104610002E2E2E2E2E534854323020746573742063
:10462000626567696E2E2E2E2E2E2E2E2E2E0D0AD0
:10463000000000002E2E2E2E2E2E2E2E2E534854ED
:104640003230207465737420656E642E2E2E2E2EEB
:104650002E2E2E2E0D0A00002E2E2E2E2E2E2E2E1B
:104660002E42483137353020746573742062656797
:10467000696E2E2E2E2E2E2E2E2E2E0D0A000000AE
:104680002E2E2E2E2E2E2E2E2E4248313735302015
:104690007465737420656E642E2E2E2E2E2E2E2E93
:1046A0002E0D0A002E2E2E2E2E2E2E2E2E4144584A
:1046B0004C333435207465737420626567696E2EDF
:1046C0002E2E2E2E2E2E2E2E0D0A00002E2E2E2EAB
:1046D0002E2E2E2E2E4144584C33343520746573C3
:1046E0007420656E642E2E2E2E2E2E2E2E2E0D0A4A
:1046F000000000002E2E2E2E2E2E2E2E2E424D503D
:10470000313830207465737420626567696E2E2EAF
:104710002E2E2E2E2E2E2E0D0A0000002E2E2E2E88
:104720002E2E2E2E2E424D5031383020746573744B
:1047300020656E642E2E2E2E2E2E2E2E2E0D0A006D
:1047400010B50446204603F087FB10BD10B50446A3
:10475000204603F059FB10BD70B504460D4614B950
:104760004FF0FF3070BD29462046FFF757F8002074
:10477000F8E770B505460E4614460020206005B1E6
:1047800014B94FF0FF3070BD21462846FFF750F8AE
:10479000206818B1294602A002F0DEFD0020F2E7F1
:1047A000726563763A25730D0A00000010B56FF04C
:1047B0000400FCF70CF9974800689749B0FBF1F04A
:1047C000964908700846007800EB4001C1EBC01024
:1047D0004FF6FF7101EAC0009149088010BD014603
:1047E0008E4A12784A434FF0E0235A6100229A61C0
:1047F0001A46126942F001021A6100BF4FF0E0222E
:10480000106900F001021AB100F48032002AF5D0DC
:104810004FF0E022126922F001024FF0E0231A610A
:1048200000229A61704701467C4A12784A434FF051
:10483000E0235A6100229A611A46126942F001028D
:104840001A6100BF4FF0E022106900F001021AB1B6
:1048500000F48032002AF5D04FF0E022126922F0F5
:1048600001024FF0E0231A6100229A61704701466D
:104870006B4A12884A434FF0E0235A6100229A6142
:104880001A46126942F001021A6100BF4FF0E0229D
:10489000106900F001021AB100F48032002AF5D04C
:1048A0004FF0E022126922F001024FF0E0231A617A
:1048B00000229A61704770B50446002600254FF427
:1048C000FA7094FBF0F0C6B24FF4FA7094FBF0F17A
:1048D00000FB114085B205E04FF4FA70FFF7C7FF07
:1048E000701EC6B2002EF7D115B12846FFF7BFFFE4
:1048F00070BD10B500244B48C06940F08050494954
:10490000C8610846C06940F00060C8614648006858
:1049100040F48070444908604248006A40F48030A6
:10492000404908620846006A20F480300862084660
:10493000406A40F00100486204E00A20FFF7BBFF34
:10494000601CC4B23748406A00F0020008B9FA2C73
:10495000F3DBFA2C00DB10BD3248006A20F4407013
:10496000304908620846006A40F400700862084650
:10497000006A40F40040086200BF2C48008800F044
:1049800020000028F9D000BF2848008800F0080067
:104990000028F9D02548001F008840F00100234975
:1049A000091F088000BF2148008800F0200000286F
:1049B000F9D01E48008840F010001C4908800020F3
:1049C000091D088049F63F40091D088017480088E6
:1049D00020F010001549088000BF1448008800F03E
:1049E00020000028F9D000BFB5E710B50446A0B2FA
:1049F000FFF761FF10BD0D48183000880B491431D6
:104A0000098840EA0140704710B5FFF7CFFEFFF775
:104A100070FF10BD0000002000127A00AC000020E2
:104A2000AE0000200010024000700040042800404A
:104A300001460A4600E0521C10780028FBD1501AAB
:104A4000704710B5034614461A4604E00878107003
:104A5000521C491C641E14B108780028F6D10020AD
:104A60001070D01A10BD10B50346A3B199B102E081
:104A70005B1C491C521E3AB1187828B1087818B14D
:104A800018780C78A042F3D01AB118780C78001B73
:104A900010BD0020FCE70BB10120F9E711B14FF088
:104AA000FF30F5E70020F3E730B560B159B152B1FE
:104AB00003460C4604E025781D705B1C641C521EE6
:104AC000002AF8D100BF30BD70B505460C4600265F
:104AD0008DB1002C03DA2846FFF7AAFF0446601CBC
:104AE000FFF72EFE064636B10020305522462946F5
:104AF0003046FFF7D9FF304670BD30B504460B464F
:104B0000214600200FE001E0491C5B1E23B10D7817
:104B100015B10D789542F7D12BB10D78954202D1A0
:104B20005B1E0846491C13B10D78002DEBD130BD3A
:104B300010B5024600230124002A2CD004E010788E
:104B4000A0F12D04521C491E99B1107888B110783B
:104B50002028F4D010780D28F1D010780928EED054
:104B600010780A28EBD010782D28E8D010782B2860
:104B7000E5D007E003EB83004300107830380344AE
:104B8000521C491E39B1107828B11078302802DB48
:104B900010783928EEDD0CB1184610BD5842FCE7FC
:104BA0002DE9FE4305460F469146002F2BD06E4659
:104BB0006C46002D04DA761C6D422D2004F8010BA2
:104BC00000BF0A2095FBF0F100FB1150303004F8D3
:104BD000010B0A2095FBF0F5002DF2D1002004F81E
:104BE000010907E096F800802078307084F8008092
:104BF000761C641EA642F5D34A4669463846FFF73E
:104C000020FFBDE8FE830020FBE770B5034693B1AB
:104C100089B11D460C4602E06D1C641C521E1AB17F
:104C200028782678B042F7D01AB128782678801BE9
:104C300070BD0020FCE70BB10120F9E711B14FF086
:104C4000FF30F5E70020F3E748B141B1024603E049
:104C500000231370521C491E0029F9D100BF704770
:104C600010B50748007838B9012005490870FFF7EA
:104C7000C2FE044601F000FD01F0F4FC10BD00008E
:104C8000B000002010B503460BB9084610BD988847
:104C90008C88A04202DD0B600846F7E71A4600E068
:104CA0001268106820B1106880888C88A042F7DBF9
:104CB0001068086011601846E8E7024600E01268D4
:104CC00012B190888842FADB22B19088884201D1E3
:104CD000104670470020FCE710B503460C4623B988
:104CE0000AB100201060002010BD9888A04203D1B6
:104CF00002B113601868F7E7194600E00968086810
:104D000018B108688088A042F8DB086850B10868CC
:104D10008088A04206D10AB108681060086800685F
:104D2000086002E00AB1002010601846DCE7014686
:104D3000002003E08A88521C90B2096811B18A8869
:104D40008242F7D0704770B5044605E025462468D6
:104D50002846FFF7FBFC00BF002CF7D170BD000018
:104D60002DE9F04F89B00646894617469A46DDE997
:104D7000128B07F0040000287DD0B468BBF1000F4F
:104D800004D0607A00F00800002875D00020079059
:104D90000025B9F90200082202A9FFF701FF02A9C4
:104DA000504601F095FC02A801F0B0FC284485B201
:104DB0009CA1504601F08CFC681C85B2607A00F022
:104DC000080018B1607A20F008006072207A052887
:104DD0000ED1207808B1012000E0002001900122CE
:104DE00004A90198FFF7DCFE012504A8079000BF85
:104DF000207A03280AD10A2204A92068FFF7D0FEEE
:104E000004A801F083FC85B204A80790207A042846
:104E10000FD1D4E9000102460B46CDE9000182A181
:104E200004A802F0A9FA04A801F070FC85B204A855
:104E30000790207A012802D0207A022803D1206826
:104E40000790A08885B2B088082202A9FFF7A8FEC3
:104E500002A9504601F03CFC02A801F057FC28448E
:104E600085B270A1504601F033FC681C85B2207AEF
:104E7000012202A901E022E020E0FFF791FE02A951
:104E8000504601F025FC681C85B266A1504601F031
:104E90001FFC681C85B25046079901F019FC63A1FC
:104EA000504601F015FC681C85B2454504D34FF00F
:104EB000FF3009B0BDE8F08F2846FAE72FE007F091
:104EC000010058B30025002407F0020010B147F09C
:104ED000040701E047F00207B6681AE007F0040093
:104EE00018B9B08800B2A9F80200B8F1000F0FD0CD
:104EF00053463A4649463046CDE9008BFFF730FF2E
:104F000085B2681C00B906E0601984B2A8EB0408F9
:104F10003668002EE2D100BF2046CAE700BF00205D
:104F2000C7E72DE9F04706460D4617469846DDE9E6
:104F3000089AA87900F0040000284AD0B468607A82
:104F400000F0020030B939460020FFF75EF98520F5
:104F5000BDE8F087207A052808D101214046FFF7F7
:104F6000E7FD08B1012000E000202070207A03282E
:104F700006D149464046FFF7DBFDC117C4E90001F1
:104F8000207A042804D1404602F028FFC4E9000139
:104F9000207A012802D0207A022809D12068FFF760
:104FA000D5FB49464046FFF78FFD2060C4F80490CA
:104FB000BAF1000F07D0AB889AB26B8899B22B88F0
:104FC00098B22346D04739460120FFF71EF9442006
:104FD000BEE78020BCE770B506460C460025A079E8
:104FE00000F00100D8B1228891B23069FFF765FE68
:104FF0000546A5B1A07900F0020080B1628891B2A7
:10500000A868FFF75AFE05464DB1A07900F00400EC
:1050100028B1A28891B2A868FFF74FFE054628463E
:1050200070BD00002C000000256600003B00000061
:105030002DE9F04707460E46B07900F00100002840
:105040007AD04FF00009328891B27869FFF735FEC7
:105050000446A4B91820FFF773FB044614B90020D6
:10506000BDE8F0874FF0010918212046FFF7ECFD5D
:105070003088A08021467869FFF704FE7861B07916
:1050800000F00100002875D04FF0000A728891B23C
:105090002069FFF712FE0546FDB91820FFF750FB07
:1050A00005466DB9B9F1000F08D0A18800227869D2
:1050B000FFF712FE78612046FFF748FB0020CFE79C
:1050C0004FF0010A18212846FFF7BEFD7088A8801E
:1050D00029462069FFF7D6FD2061B07900F0040071
:1050E00000283FD0B28891B22869FFF7E6FD8046DC
:1050F000B8F1000F2DD11820FFF722FB8046B8F140
:10510000000F1AD1BAF1000F08D0A9880022206937
:10511000FFF7E2FD20612846FFF718FBB9F1000F09
:1051200008D0A18800227869FFF7D6FD7861204673
:10513000FFF70CFB002093E723E018214046FFF720
:1051400083FDB088A8F8040041462869FFF79AFD5E
:105150002861012088F81400FFF74DFCC8F80C0006
:1051600040467DE701202875FFF745FCE8602846AA
:1051700076E7FFE701202075FFF73DFCE060204661
:105180006EE700206CE7F8B507460C46A07900F002
:105190000100002856D0228891B27869FFF78DFD72
:1051A00005460DB98420F8BDA07900F00200002862
:1051B00034D0628891B22869FFF77FFD06460EB9A8
:1051C0008420F0E7A07900F00400A0B1A28891B299
:1051D0003069FFF772FD0090009808B98420E2E77B
:1051E000A28891B26A463069FFF776FD3061009877
:1051F000FFF7ACFA00BF306978B9307D18B1A079FB
:1052000000F0040048B9628891B200222869FFF7D3
:1052100063FD28613046FFF799FA00BF286978B925
:10522000287D18B1A07900F0020048B9228891B217
:1052300000227869FFF750FD78612846FFF786FA6B
:105240004520B0E78020AEE72DE9FC4706460F4633
:1052500014461D46DDF8288000BF4146284601F06F
:105260002CFA0120CDE90080A2792B462146384650
:10527000FFF776FD1FFA80F9284601F047FA401C37
:105280001FFA80F9B9F1000F00DC08E0012000905E
:1052900033884A462946204600F07EFA00BF00BF08
:1052A000BDE8FC8730B505460C4604F0040020B18B
:1052B000A968487AC0F3C00030BD04F0010098B17D
:1052C00004F0020010B144F0040401E044F00204D0
:1052D000AD6807E021462846FFF7E4FF08B101204A
:1052E000EAE72D68002DF5D10020E5E72DE9FE4F16
:1052F00081468B4692461F46D9F8145072E0A88822
:1053000000B2ADF8040001208DF80A002E694EE0CD
:10531000B08800B2ADF806009DF80A0040F0020027
:105320008DF80A00D6F8108022E098F81400E8B151
:10533000B8F8040000B2ADF808009DF80A0040F08B
:1053400004008DF80A0001A94846FFF744FE044610
:1053500064B19DF80A102046FFF7A4FF30B1534610
:1053600001AA214648460097FFF76EFFD8F8008053
:10537000B8F1000FD9D1307DC0B19DF80A0020F0FE
:1053800004008DF80A0001A94846FFF724FE0446F0
:1053900064B19DF80A102046FFF784FF30B15346F0
:1053A00001AA214648460097FFF74EFF3668002EB7
:1053B000AED1287DA8B101208DF80A0001A9484688
:1053C000FFF709FE044664B19DF80A102046FFF776
:1053D00069FF30B1534601AA214648460097FFF7BE
:1053E00033FF2D68002D8AD1BDE8FE8F70B50446CD
:1053F0000D4616462079012809D1FFF7FCFAE06036
:10540000012D02D10220207101E00320207170BD26
:105410002DE9F84304460D4616461F464FF0000896
:105420002079032801D02079C0B9EBB2208982B25B
:1054300039463046FEF701FD8046B8F1000F0AD02C
:10544000012020713F48434632460121009020460A
:1054500000F082F802E0A020BDE8F8830020FBE71E
:1054600070B504460D4616462079042809D1FFF789
:10547000C2FAE060012D02D10220207101E0032078
:10548000207170BDF8B504460D46164600272EA0C3
:1054900001F062FF218988B233462A460021FEF7D7
:1054A00010FD074657B1042020712A483B462A4682
:1054B00001210090204600F04FF801E0A020F8BD47
:1054C0000020FCE70379062B01D10023037170470C
:1054D0002DE9F04104460D46164600273146284680
:1054E000FEF72CFD074617B10620207102E0A02030
:1054F000BDE8F0810020FBE72DE9F04104460D46B0
:1055000016461F46D4F80880207902280AD1A8F14F
:105510003208E0684044A84204D83A463146204662
:10552000FFF7B0FF2079052804D13A4631462046DE
:10553000FFF7A8FF2079032802D10020FCF730FEF6
:10554000BDE8F081ED5300087570646174650D0A63
:1055500000000000615400082DE9F0470546884628
:1055600091461E46DDF820A01C20FFF7E9F804460E
:105570001CB96FF00100BDE8F0873046FFF7E0F896
:1055800007462FB92046FFF7E1F86FF00100F2E778
:105590001C212046FFF758FB324649463846FFF7A4
:1055A00083FAB8F1010F02D16888A08001E0288851
:1055B000A08027616661C4F818A02146A869FFF79A
:1055C00061FBA8610020D6E7F8B504460E461546F3
:1055D000002000906A462946A069FFF77DFBA06184
:1055E000009810B96FF00300F8BD0098806928B1E9
:1055F0000098827931468369204698470099086966
:10560000FFF7A4F80098FFF7A1F80020ECE72DE9D8
:10561000F04706460D4691469A460027B4692CE0AD
:105620002768E068A84227D84FF00008A079D0B9D1
:10563000E07928B90120E07105F10A00E06012E08C
:10564000E07903280DDC0FA001F086FED4E9040107
:10565000FFF782F8E0680A30E060E079401CE07112
:1056600001E04FF00108B8F1000F04D0A28800213A
:105670003046FFF7A9FF00BF3C46002CD0D1BDE863
:10568000F087000072657472616D69743A00000001
:105690002DE9F04706460D4617469846DDF820905E
:1056A0004FF40A70FFF74CF804461CB96FF0010084
:1056B000BDE8F0874FF40A712046FFF7C5FA346061
:1056C000FFF7CEFA208020886080A560E761C4F8EB
:1056D0002080C4F82490002211462846FEF7ADF938
:1056E0000020E5E770B505462C690EE0A66803E0EA
:1056F000B068FFF728FB3668002EF9D1A068FFF7E5
:1057000022FBA088FEF723FA2468002CEED128693A
:10571000FFF719FB0020286170BD70B50446606971
:1057200000B970BD65690BE02E6903E03069FFF7D1
:105730000AFB3668002EF9D12869FFF704FB2D68B3
:10574000002DF1D16069FFF7FEFA0020606100BF13
:10575000E7E770B50446A06900B970BDA56903E02C
:105760002869FEF7F3FF2D68002DF9D1A069FFF736
:10577000EAFA0020A06100BFEFE710B5044620461A
:10578000FFF7E7FF2046FFF7C8FF2046FFF7AAFF15
:105790002046FEF7DBFF10BD2DE9F04FADF21C4DAA
:1057A000074688469946DDF840A40025AB46012609
:1057B00000243888ADF80C0044468BE0002C77D0EC
:1057C00006E014F8012B28466D1C0DF214410A5412
:1057D00020782C28F5D100200DF214414855641C86
:1057E0000025084600F092FF014602900DF2144099
:1057F000FFF79EF900B2ADF80E0006E014F8012B99
:1058000028466D1C0DF214410A5420782C28F5D13D
:1058100000200DF214414855641C0025084600F094
:1058200075FF014602900DF21440FFF781F900B2B6
:10583000ADF8100006E014F8012B28466D1C0DF29F
:1058400014410A5420782C28F5D100200DF214417F
:105850004855641C0025084600F058FF0146029098
:105860000DF21440FFF764F900F0FF0B05E014F8A7
:10587000012B28466D1C05A90A5420783B28F6D137
:10588000002005A94855641C0025207800B9002691
:10589000BAF1010F0DD10020334605AA5946CDE9D2
:1058A000000903A8FEF764FB012E10D102260EE0CA
:1058B0000FE0002001214B4605AACDE90106009129
:1058C000594603A8FEF7F0FB012E00D102260EB9BF
:1058D00001E000E072E700BF00200DF21C4DBDE8C2
:1058E000F08F2DE9FC5F05460C4616469846DDF81C
:1058F00030A000BF21462846FFF76DFB074607B9D9
:1059000024E0286A78B1B4F804B01FFA8BF2B4F836
:1059100002B01FFA8BF1B4F800B01FFA8BF0BB682D
:10592000D5F820C0E0470020CDE90080A2793346B9
:1059300021463846FFF714FA8146002053464A466E
:10594000314600902046FFF727FF00BF00BFBDE8AB
:10595000FC9F2DE9FC5F06460F4690469946DDE91F
:105960000CAB00BF39463046FFF735FB054605B99D
:1059700009E04B46424639462846CDE900ABFFF7E1
:10598000D0FA044600BF00BFBDE8FC9F2DE9FC5FD4
:1059900083460C4616461F46DDE90CA800BFA079D9
:1059A00000F0040000B92AE021465846FFF713FB37
:1059B000054605B923E0D5F8089099F8090000F0EC
:1059C000040020B931460020FEF799FC17E0B8F139
:1059D000000F0FD0CDE9007AB4F804C01FFA8CF2A2
:1059E000B4F802C01FFA8CF1B4F800C01FFA8CF0B2
:1059F000AB68C04731460120FEF781FC00BF00BF05
:105A0000BDE8FC9F70B505460C4600BF2146284600
:105A1000FFF7E1FA064606B90DE0E079012803D167
:105A200021462846FFF704FBE07918B921462846AD
:105A3000FFF7A9FB00BF00BF70BD2DE9F04F89B093
:105A400007460E469146DDF848A04FF0000B0020B7
:105A5000069000250024FEA1484600F045FE0446BD
:105A600014B909B0BDE8F08FE41C06E014F8012B6E
:105A70002846691CCDB203A90A5420782C28F5D1F8
:105A8000002003A948550025641C03A800F03EFE31
:105A90000146029003A8FFF74BF81FFA80F806E0D2
:105AA00014F8012B2846691CCDB203A90A542078AA
:105AB0002C28F5D1002003A948550025641C03A813
:105AC00000F024FE0146029003A8FFF731F800B26F
:105AD000ADF81C0006E014F8012B2846691CCDB275
