:020000040800F2
:10000000103A002049010008411D00085301000872
:100010003D1D00087D1100085D2C00080000000057
:10002000000000000000000000000000F7220008AF
:10003000C113000800000000C51D00085326000879
:10004000730100087301000873010008651F0008B0
:1000500073010008730100087301000873010008B0
:1000600073010008730100087301000873010008A0
:100070007301000873010008730100087301000890
:100080007301000873010008730100087301000880
:100090007301000873010008730100087301000870
:1000A0007301000873010008730100087301000860
:1000B0007301000873010008730100087301000850
:1000C0007301000873010008730100087301000840
:1000D0007301000873010008730100085927000824
:1000E000D5130008730100087301000873010008AC
:1000F0007301000873010008730100087301000810
:1001000073010008730100087301000873010008FF
:1001100073010008730100087301000873010008EF
:1001200073010008730100087301000873010008DF
:10013000DFF810D000F076FC0048004701470008C7
:10014000AFF30080103A00200A4880470A48004771
:10015000FEE71EF0040F0CBFEFF30880EFF30980F9
:1001600001F0D6B9FEE7FEE7FEE7FEE7FEE7FEE7B1
:10017000FEE7FEE755260008310100080649074A58
:100180000868504343F23902104408604008704741
:100190000149086070470000B40000206D4EC64160
:1001A00040EA01039B0703D009E008C9121F08C0F9
:1001B000042AFAD203E011F8013B00F8013B521E79
:1001C000F9D27047D2B201E000F8012B491EFBD2F0
:1001D00070470022F6E710B513460A460446194652
:1001E000FFF7F0FF204610BD421E12F8013F002B22
:1001F000FBD111F8013B02F8013B002BF9D170470C
:1002000030B505462A460B4612F8010B13F8014B90
:1002100008B1A042F8D01CB1002802D06D1CF1E753
:10022000284630BD421C10F8011B0029FBD1801A62
:100230007047034611F8012B00F8012B002AF9D171
:100240001846704730B505460020034600E05B1CA9
:10025000934205D2EC5CC85C201A01D1002CF6D187
:1002600030BDF0B480EA0102D40F4200B2EB410F7E
:1002700002D20246084611464A0042D0C30DDDB202
:10028000C1F3C752AD1A202D35DAC1F3160141F47E
:10029000000204B15242C5F1200602FA06F12A41D9
:1002A0001044B3EBD05F23D0C4B1012DA0EBC350F9
:1002B00009DCF0BC4FF0004202EAC352DBB200F5A9
:1002C000000000F0F4BA400000F1807000EBC35071
:1002D000A0F1807040EAD170490009E0490841EA84
:1002E000C071A0EBC35000F50000400800EBC35004
:1002F000F0BC00F0D3BA6142012202EB4101001BC5
:10030000F6E7F0BC704781F00041AAE780F00040BA
:10031000A7E730B480EA010202F0004530F0004265
:1003200021F0004013D090B1C30DD40DC2F31601DB
:10033000C0F31600E41A41F4000140F400027D34D9
:10034000914201D3641C00E04900002C02DA30BC69
:10035000002070474FF400000023914201D3891A16
:10036000034340084FEA4101F7D151B1914202D114
:100370004FF0004105E002D24FF0010101E06FF0C3
:10038000010103EBC450284430BC00F087BA2DE9CA
:10039000FE4F804681EA0300C00F0C46009021F01A
:1003A000004123F00045B8EB0200A94105D24046C8
:1003B000214690461C460B46024623F0004010435F
:1003C00047D0270DC7F30A00C3F30A510290401A21
:1003D000019040286BDAC3F3130040F4801B0098AF
:1003E000924620B10023D2EB030A63EB0B0B01987A
:1003F0005946C0F14002504600F0E0F906460D466D
:1004000050465946019A00F0E8F910EB08006141A6
:10041000002487EA115284EAE7731A4340D0009A15
:1004200062B3019A012A4FEA075215DC001B61EB07
:1004300002014FF0004202EA0752CDE90042001CDF
:1004400041F5801132462B4600F06EFA03B0BDE84C
:10045000F08F40462146F9E7001B61EB0201001CCA
:1004600041F5801300185B412018A2F5001747EBF7
:10047000030140EAD570B6196D4111E06D084FEAED
:10048000360645EAC0754FEA0752001B61EB0201D0
:10049000001C41F5801149084FEA30000019514114
:1004A00032462B4603B0BDE8F04F00F02EBA00985C
:1004B000012240000023D0EB020263EBE0730098BE
:1004C00021464FEAE074B8EB000061EB0401E9E774
:1004D00083F000435BE781F0004158E72DE9FE4FD0
:1004E00081EA030404F0004421F0004100944FF03D
:1004F000000B23F0004350EA01045ED052EA0304EB
:100500005BD0C3F30A54C1F30A552C44A4F2F3346C
:100510000194A0FB0254C1F3130141F48011C3F311
:10052000130343F4801301FB024400FB034E840ACF
:10053000970A44EA815447EA8357A4FB0768029567
:100540008D0A05FB07854FEA932C04FB0C54270505
:10055000029D4FEA065847EA1637B5EB08056EEBE1
:10056000070C870E920E47EA811742EA8312A7FB17
:100570000201B6EB0B0164EB00042B0D43EA0C33D4
:100580005E1844EB1C50DA465146E7FB0201C5F306
:1005900013044FEA0B3343EA14534FEA0432019C2D
:1005A00043EA0603A4F10C040294009CCDE900B4D4
:1005B00000F0BAF903B0BDE8F08F00200146F9E77A
:1005C0002DE9F04D81EA030404F0004B21F00045D1
:1005D00014464FF0000A23F0004150EA050220D0F3
:1005E00054EA01021DD0C5F30A570246C5F31303AE
:1005F000C1F31300C1F30A5640F4801543F480138D
:10060000A7EB0608101BD64608F2FD3873EB050071
:1006100002D308F1010801E092185B41B8F1000F24
:1006200003DA00200146BDE8F08D00204FF4801170
:10063000064684460EE0171B73EB050705D3121B15
:1006400063EB050306434CEA010C49084FEA30000E
:1006500092185B4150EA0107EDD152EA030012D033
:1006600082EA040083EA0501084305D0101BAB4170
:1006700006D20122002306E000224FF0004302E0F0
:100680006FF0010253101AEB06004CEB085110EB0F
:100690000A0041EB0B01BDE8F04D00F036B996239E
:1006A0000022114600F003B920F00040C10DC0F354
:1006B000160040F400007F2901DA002070479629D7
:1006C00003DCC1F19601C8407047963988407047F5
:1006D00000F0004230F000400AD0C10D01F5607119
:1006E000C0F3160042EA0151C208400711437047A7
:1006F00000200146704701F0004330B421F0004172
:1007000050EA010206D00A0DA2F56072C1F313018E
:10071000002A02DC30BC00207047440F44EAC104C8
:10072000C100E01830BC00EBC25000F0B7B830B5E3
:100730000B46014600202022012409E021FA02F59F
:100740009D4205D303FA02F5491B04FA02F5284439
:10075000151EA2F10102F1DC30BD2DE9F05F054666
:10076000002092469B4688460646814640241BE070
:10077000284641464746224600F066F953465A4607
:10078000C01A914110D311461846224600F016F8BF
:100790002D1A67EB01084F4622460120002100F088
:1007A0000DF817EB00094E41201EA4F10104DFDC17
:1007B000484631462A464346BDE8F09F202A04DBDE
:1007C000203A00FA02F1002070479140C2F1200364
:1007D00020FA03F3194390407047202A06DBCB1719
:1007E000203A41FA02F043EAE07306E041FA02F3EC
:1007F000D040C2F1200291400843194670470000E2
:100800000FB4002300B589B00CA900910B996FF0CB
:100810000042CB601E4B06931E4B07930423CDE989
:1008200001321D4A089202466B46002000F0B6F9DC
:1008300009B05DF814FB70B586B006464FF0FF3086
:100840000091CDE90101002015460C460490324686
:10085000694604A8FFF7D4FF02460498211825B181
:1008600008B1084600E020462860049800280DD012
:10087000002A02DD0098884208D0081B0094CDE9C8
:1008800001043246694604A8FFF7BAFF06B070BDFE
:10089000D50D0008F30D0008690A00080029A8BF5B
:1008A0007047401C490008BF20F00100704710B499
:1008B000B0FA80FC00FA0CF050EA010404BF10BC4E
:1008C000704749B1CCF1200421FA04F411FA0CF17B
:1008D00018BF012121430843A3EB0C01CB1D4FEAB4
:1008E00000614FEA102042BF002010BC704700EBAF
:1008F000C35010440029A4BF10BC7047401C4900DD
:1009000008BF20F0010010BC704710B5141E73F131
:10091000000408DA401C41F1000192185B411A43BF
:1009200001D120F0010010BD2DE9F04D92469B460B
:1009300011B1B1FA81F202E0B0FA80F220329046B1
:10094000FFF73CFF04460F4640EA0A0041EA0B016C
:1009500053465A46084313D0114653EA010019D0B2
:10096000C8F14002504600F06FF805460E4650466A
:1009700059464246FFF722FF084305D0012004E014
:1009800020463946BDE8F08D0020054346EAE07672
:100990002C4337430A986305E40AA0EB08000022C1
:1009A000FD0A44EA47540A3002D500200146E9E72F
:1009B000010510196941DDE9084500196941BDE8E3
:1009C000F04DA2E7C1F30A52C1F3130140F2FF3325
:1009D00041F480119A4202DA00200146704740F249
:1009E00033439A42A2F2334202DC524200F02CB866
:1009F000FFF7E4BE30B5041E71F1000404DB4FF0D4
:100A00000044404264EB0101141E73F1000405DB55
:100A10001C464FF00043524263EB0403994208BF67
:100A2000904230BD064C074D06E0E06840F00103FF
:100A300094E8070098471034AC42F6D3FFF77CFBEC
:100A40004C6700086C670008202A04DB203A21FA72
:100A500002F00021704721FA02F3D040C2F12002D7
:100A60009140084319467047C0B24FF4F05100F06E
:100A7000D1B900002DE9FF4F087883B09946FF28CF
:100A800005D0491C2D2804D00024002008E00020B7
:100A90000BE00124F9E700EB800003EB4000491C68
:100AA0000B78FF2BF7D104B1404200230293147856
:100AB00019461D462D2C01D02B2C04D1521C2D2C57
:100AC00013D000240294AA461478FF2C0FD00A25D4
:100AD000A3FB057801FB05814FF0000C03FB0C1113
:100AE000521CE3194AEB0101EEE70124EAE78144D5
:100AF00053EA010002D019F5C87F06DA03980021F5
:100B0000C0E9001107B0BDE8F08F0025AE4E2F46BA
:100B1000DFF8B882184600F091F9CDE90001B9F18B
:100B2000000002DAC9F1000400E004460023A74AED
:100B30001AEB030B42EB045A12E0E00707D02A46F7
:100B4000334638464146FFF7C9FC074688462A46E1
:100B5000334610461946FFF7C1FC05460E466410A1
:100B6000002CEAD1DDE90001B9F1000F5A465346E5
:100B700006DAFFF725FD3A464346FFF721FD05E07B
:100B8000FFF7ACFC3A464346FFF7A8FC029A0AB1CD
:100B900081F00041039AC2E90001B3E72DE9FF4F5C
:100BA0001F468DB0D7E901464FF0FF382E2045464D
:100BB0004FF000090B90B9696D1C0E988847396A8F
:100BC000824688470028F6D1BAF1FF3F0AD024F4C4
:100BD000D064002E11DDBAF12B0F08D0BAF12D0F21
:100BE0000BD102E0404611B08DE744F48064B9694E
:100BF0006D1C0E9888478246761E6946600501D5B1
:100C00002D2000E02B208DF8000001F1010B0DF1EB
:100C1000200809E0B9696D1C0E98884782460F9834
:100C200044F40074761E0560002E02DDBAF1300F28
:100C3000F0D00B998A453ED144F0800406E00F992C
:100C4000681CA9F1010944F400740860B9696D1CBD
:100C5000761E0E98884782463028F0D02BE00B99FC
:100C60008A4505D1200603D444F08004761E18E09E
:100C7000504602F0F7F808B30DF11301761E44F464
:100C800000748B4508D2AAF130000BF8010B200646
:100C900007D5A9F1010003E0200602D409F1010003
:100CA0008146A00502D50F99681C0860B9696D1CC2
:100CB0000E9888478246002ED1DC53E0002E51DD8D
:100CC000BAF1650F02D0BAF1450F4BD1A00549D555
:100CD000B9696D1C24F44074761E0E9888478246CC
:100CE000002E0CDD2B2804D0BAF12D0F07D144F4CF
:100CF0008074B9696D1C0E9888478246761EE0059F
:100D000001D52D2100E02B2108F8011BCDF82C8006
:100D100021E00DF12901761E44F4007488450CD2BF
:100D2000AAF1300010F0FF0088F8000002D10B9902
:100D3000884509D908F1010806E0E00501D52448F5
:100D400001E042F20F708146B9696D1C0E98884728
:100D500082460F980560002E04DD504602F082F8AE
:100D60000028D6D1F9690E988847FF208BF800003B
:100D700088F800000020069007904B466A4608A9B4
:100D800006A8FFF777FEA00502D46FF001002AE75E
:100D900014F0240F0AD0E00714D1DDE906123868F8
:100DA000031D3B600068C0E900120BE0DDE90601AD
:100DB000FFF7A1FC0146E00704D13868021D3A6044
:100DC0000068016028460EE7000014400000F03F74
:100DD000F1D8FFFF426842B1016811F8013B23B12D
:100DE000521EC0E90012184670470121C160881EDA
:100DF000704742685AB1C368016843B983688B423F
:100E000005D0491E521CC0E90012002070474FF067
:100E1000FF3070477F2801D9002208E0064A02EB24
:100E20005002C007127800D1120902F00F0201200F
:100E300090400840704700008C6600080EB540F2F4
:100E4000334202920022CDE900221346FFF76CFDE7
:100E500003B000BD08B54FF4E070ADF8000003200A
:100E60008DF8020010208DF803006946084800F054
:100E7000B2FA4FF40070ADF8000003208DF80200C4
:100E800004208DF803006946014800F0A4FA08BD6B
:100E90000010014010B54021244800F030FB6420D0
:100EA00000F08FFA092000F0BBF8802000F0B8F8BD
:100EB000012000F0B5F80A2000F0B2F8802000F020
:100EC000AFF8432000F0ACF80B2000F0A9F8802028
:100ED00000F0A6F8852000F0A3F80C2000F0A0F8A0
:100EE000802000F09DF8C72000F09AF8192000F04B
:100EF00097F8092000F094F8F02000F091F82120F4
:100F000000F08EF8062000F08BF8002000F088F842
:100F1000802000F085F8012000F082F80D2000F01C
:100F20007FF8C02000F07CF810BD000000100140E8
:100F300070B50024002519E064004FF480710F485B
:100F400000F0DDFA322000F03CFA4FF400710B485B
:100F500000F0CCFA00B1641C4FF48071074800F037
:100F6000D0FA322000F02DFA681CC5B2182DE3DB50
:100F7000642000F026FA204670BD000000100140F9
:100F800070B5002400251BE06006040E4FF480714C
:100F90000F4800F0B4FA642000F013FA4FF4007127
:100FA0000B4800F0A3FA08B1601CC4B24FF4807182
:100FB000074800F0A6FA642000F003FA681CC5B2E6
:100FC000082DE1DB642000F0FCF9204670BD000034
:100FD0000010014010B54021104800F090FA802127
:100FE0000E4800F08EFA002411E04FF480710B4897
:100FF00000F085FA282000F0E4F94FF480710748EA
:1010000000F07FFA282000F0DCF9601CC4B2412C0B
:10101000EBDB4021014800F074FA10BD00100140E4
:1010200070B50446254600261FE04FF48071104835
:1010300000F065FA05F0800020B180210C4800F036
:1010400060FA03E080210A4800F059FA642000F0B9
:10105000B8F94FF48071064800F053FA642000F0AC
:10106000B0F96806050E701CC6B2082EDDDB70BD37
:10107000001001401CB50020019000904FF49670C4
:1010800005F054FA01AA0021532000F0BFFA4FF4F2
:10109000967005F04BFA2B2000906A4631215320C0
:1010A00000F0E9FA322005F041FA0A2000906A4681
:1010B0002C21532000F0DFFA322005F037FA2820E7
:1010C00000906A462D21532000F0D5FA322005F019
:1010D0002DFA002000906A462E21532000F0CBFA12
:1010E000322005F023FA6A461E21532000F0C3FA8D
:1010F000322005F01BFA6A461F21532000F0BBFA8C
:10110000322005F013FA6A462021532000F0B3FA8A
:101110004FF4FA7005F00AFA1CBD10B501F07AFA26
:10112000C82003F0CFFA00F0A1FF00F049F810BD8D
:1011300008B50121082000F087FE10208DF803007B
:101140000120ADF8000003208DF802006946034835
:1011500000F041F9002000F003F808BD000C014048
:1011600010B5044622460121024800F0CCF902489D
:10117000047010BD000C0140A400002000BFFEE779
:1011800010B5044600F078FB462000F03BFB41F22E
:10119000883000F0B5FB08B1012010BDE0B200F0CE
:1011A00031FB41F2883000F0ABFB08B10120F4E7DD
:1011B00000F084FB41F2883005F0B8F90020ECE73C
:1011C0002DE9F0410F4800780F4908800D4840781C
:1011D000097800EB01200C49088008460088FFF7D9
:1011E0005EFA8046FFF774FA06464FF03332074B3B
:1011F000FFF7E6F90446FFF77EFA05490860BDE807
:10120000F08100009C0000209E0000203333F33F5B
:101210009800002021B1026842F00102026004E05F
:1012200002684FF6FE731A400260704701684FF67D
:10123000FE72114001600021016041608160C16067
:101240004B49884208D14A490839496841F00F01A1
:10125000474A083A51608AE045491431884208D12A
:1012600043490839496841F0F001414A083A516060
:101270007DE03F492831884208D13D490839496815
:1012800041F470613A4A083A516070E038493C31A3
:10129000884208D136490839496841F47041344AD6
:1012A000083A516063E032495031884208D13049F0
:1012B0000839496841F470212D4A083A516056E0D6
:1012C0002B496431884208D129490839496841F4D9
:1012D0007001274A083A516049E02549783188422F
:1012E00008D123490839496841F07061204A083A19
:1012F00051603CE01F49884206D1011F096841F056
:101300000F01021F116032E01A491431884208D1DE
:101310001849091F096841F0F001164A121F1160AF
:1013200025E014492831884208D11249091F09686B
:1013300041F470610F4A121F116018E00D493C31F1
:10134000884208D10B49091F096841F47041094AD4
:10135000121F11600BE007495031884207D105493F
:10136000091F096841F47021024A121F1160704779
:1013700008000240080402400146486880B27047F5
:1013800010B50022026847F6F0739A430C6A8B6826
:1013900023430C6923434C6923438C692343CC6961
:1013A00023434C6A23438C6A23431A430260CB686D
:1013B00043600B6883604B68C36010BD4160704739
:1013C000704701B502E00098401E00900098002888
:1013D000F9D108BD70472DE9F041024600250026ED
:1013E000002000230024002791F803C00CF00F0513
:1013F00091F803C00CF0100CBCF1000F03D091F871
:1014000002C04CEA050591F800C0BCF1000F31D0D4
:10141000146800202BE04FF0010C0CFA00F3B1F837
:1014200000C00CEA03069E4220D183004FF00F0C4F
:101430000CFA03F7BC4305FA03FC4CEA040491F8E8
:1014400003C0BCF1280F06D14FF0010C0CFA00FCD0
:10145000C2F814C00AE091F803C0BCF1480F05D1EE
:101460004FF0010C0CFA00FCC2F810C0401C082818
:10147000D1D31460B1F800C0BCF1FF0F34DD546863
:1014800000202EE000F1080C4FF0010808FA0CF3E0
:10149000B1F800C00CEA03069E4221D183004FF050
:1014A0000F0C0CFA03F7BC4305FA03FC4CEA0404E6
:1014B00091F803C0BCF1280F05D100F1080C08FA1F
:1014C0000CF8C2F8148091F803C0BCF1480F07D1A2
:1014D00000F1080C4FF0010808FA0CF8C2F810806F
:1014E000401C0828CED35460BDE8F081024600209D
:1014F00093680B400BB1012000E000207047416170
:101500007047016170470AB1016100E041617047B5
:1015100008B5044625686668A768D4F80C80D4F836
:101520001090D4F814A0D4F818B0E06900902946BF
:1015300017A001F095FB314618A001F091FB394648
:1015400019A001F08DFB41461AA001F089FB494624
:101550001BA001F085FB51461CA001F081FB594600
:101560001DA001F07DFB1FA0009901F079FB204830
:10157000016820A001F074FB1D480C30016820A018
:1015800001F06EFB4FF0FF301949086000BFFEE725
:1015900052303D20307825780A00000052313D203D
:1015A000307825780A00000052323D2030782578C6
:1015B0000A00000052333D20307825780A000000F0
:1015C0005231323D20307825780A00004C523D20BF
:1015D000307825780A00000050433D203078257887
:1015E0000A0000005053523D20307825780A000050
:1015F0002CED00E0484653523D20307825780A0013
:10160000424641523D20307825780A002DE9F041CC
:1016100004460D46164600276006070E00F06EFAD7
:10162000384600F035FA41F2883000F0A3FA10B1E4
:101630000120BDE8F081284600F02AFA41F2883006
:1016400000F098FA08B10120F3E700F057FA791C8E
:10165000C8B200F01DFA41F2883000F08BFA08B1F0
:101660000120E6E700F0E8F9307000F0C7F900F07B
:1016700063FA0020DDE72DE9F04105460E461446E9
:1016800000276806070E00F039FA384600F000FA25
:1016900041F2883000F06EFA10B10120BDE8F0810F
:1016A000304600F0F5F941F2883000F063FA08B1F5
:1016B0000120F3E74CB1207800F0EAF941F28830DC
:1016C00000F058FA08B10120E8E700F035FA0020F0
:1016D000E4E7000010B54FF400510D48FFF70FFF8D
:1016E0004FF480510A48FFF70AFF0A49088804F0BE
:1016F0001DFF4FF400510648FFF703FF0549088816
:1017000004F014FF4FF400510148FFF7F8FE10BD3C
:10171000000C0140A000002008B50121082000F0C5
:1017200093FB14208DF803004FF44050ADF80000F7
:1017300003208DF8020069460848FFF74CFE02209E
:1017400000F094F84FF480510448FFF7DAFE4FF4AC
:1017500000510248FFF7D5FE08BD0000000C014013
:1017600010B54FF400510D48FFF7C9FE4FF48051FA
:101770000A48FFF7C6FE0A49088804F0D7FE4FF46E
:1017800000510648FFF7BDFE0549088804F0CEFE6B
:101790004FF400510148FFF7B2FE10BD000C0140AC
:1017A000A000002070B5002500244FF4805113489C
:1017B000FFF7A7FE1DE04FF400511048FFF79FFE12
:1017C0000F49088804F0B2FE4FF400510B48FFF7B0
:1017D00098FE6006040E4FF480510848FFF786FE1D
:1017E00008B1601CC4B20649088804F09FFE681C5A
:1017F000C5B2082DDFDB204670BD0000000C0140A3
:10180000A000002070B5044600254FF40051154893
:10181000FFF775FE23E004F0800028B14FF48051FB
:101820001048FFF76EFE04E04FF480510D48FFF7BB
:1018300066FE6006040E0C49088804F077FE4FF43B
:1018400000510848FFF75DFE0749088804F06EFE66
:101850004FF400510348FFF752FE681CC5B2082D33
:10186000D9DB70BD000C0140A000002001490880B8
:1018700070470000A000002010B54FF480510D48C3
:10188000FFF73FFE4FF400510A48FFF73AFE0A49BE
:10189000088804F04BFE4FF480510648FFF72FFEF6
:1018A0000549088804F042FE4FF400510148FFF753
:1018B00026FE10BD000C0140A000002010B54FF422
:1018C00080510D48FFF71BFE4FF400510A48FFF707
:1018D00016FE0A49088804F029FE4FF40051064814
:1018E000FFF70FFE4FF480510348FFF70AFE03494C
:1018F000088804F01BFE10BD000C0140A000002071
:1019000010B504464FF480511648FFF7FAFD16490A
:10191000088804F00BFE4FF400511248FFF7F1FD68
:101920001149088804F002FE0DE0601E041E06D076
:101930000EA001F095F9FFF7C1FF012010BD0A4983
:10194000088804F0F3FD4FF480510648FFF7CEFD00
:101950000028EAD14FF400510248FFF7D0FD0020E3
:10196000ECE70000000C0140A00000205761697402
:1019700041636B2054696D654F75740D0A0000005A
:1019800010B540210B48FFF7BAFD80210948FFF749
:10199000B6FD0949088804F0C9FD40210548FFF754
:1019A000B0FD0549088804F0C1FD40210148FFF75A
:1019B000A6FD10BD000C0140A200002008B50121C9
:1019C000082000F041FA14208DF80300C020ADF883
:1019D000000003208DF8020069460748FFF7FBFC72
:1019E000022000F085F880210348FFF78AFD40219E
:1019F0000148FFF786FD08BD000C014010B54021ED
:101A00000B48FFF77CFD80210948FFF77AFD094963
:101A1000088804F08BFD40210548FFF772FD054959
:101A2000088804F083FD40210148FFF768FD10BDE0
:101A3000000C0140A200002070B500250024802188
:101A40001148FFF75EFD1AE040210F48FFF757FDF0
:101A50000E49088804F06AFD40210B48FFF751FD4C
:101A60006006040E80210848FFF740FD08B1601CA5
:101A7000C4B20649088804F059FD681CC5B2082D97
:101A8000E2DB204670BD0000000C0140A2000020F7
:101A900070B50446002540211348FFF730FD1FE0D4
:101AA00004F0800020B180210F48FFF72AFD03E0F9
:101AB00080210D48FFF723FD6006040E0B490888BE
:101AC00004F034FD40210848FFF71BFD0749088852
:101AD00004F02CFD40210448FFF711FD681CC5B23D
:101AE000082DDDDB70BD0000000C0140A2000020CD
:101AF0000149088070470000A200002010B5802135
:101B00000B48FFF7FEFC40210948FFF7FAFC0949A2
:101B1000088804F00BFD80210548FFF7F0FC05491B
:101B2000088804F003FD40210148FFF7E8FC10BDE0
:101B3000000C0140A200002010B580210B48FFF7E7
:101B4000DEFC40210948FFF7DAFC0949088804F067
:101B5000EDFC40210548FFF7D4FC80210348FFF746
:101B6000D0FC0349088804F0E1FC10BD000C0140E2
:101B7000A200002010B5044680211548FFF7C1FCE3
:101B80001449088804F0D2FC40211148FFF7B9FC41
:101B90001049088804F0CAFC0DE0601E041E06D03F
:101BA0000DA001F05DF8FFF7C7FF012010BD094946
:101BB000088804F0BBFC80210548FFF797FC00284B
:101BC000EBD140210248FFF79AFC0020EEE700002D
:101BD000000C0140A20000205761697441636B2032
:101BE00054696D654F75740D0A00000008B5012138
:101BF000102000F029F948208DF803000F20ADF8DF
:101C0000000003208DF8020069460248FFF7E3FB5D
:101C100008BD00000010014010B50446012C00D1A1
:101C200000E00020024610210448FFF76CFC0CB1D4
:101C3000012000E000200249087010BD00080140AA
:101C40009400002010B50446012C00D100E00020D3
:101C5000024620210448FFF756FC0CB1012000E0A9
:101C600000200249487010BD000801409400002087
:101C700010B50446012C00D100E0002002464021AE
:101C80000448FFF740FC0CB1012000E000200249AD
:101C9000887010BD000801409400002010B5044673
:101CA000012C00D100E00020024680210448FFF70B
:101CB0002AFC0CB1012000E000200249C87010BDD0
:101CC000000801409400002008B50121042000F024
:101CD000BBF810208DF80300F020ADF800000320C1
:101CE0008DF8020069460848FFF775FB0020FFF7F2
:101CF00093FF0020FFF7A6FF0020FFF7B9FF0020A9
:101D0000FFF7CCFF08BD00000008014008B5012125
:101D1000102000F099F81020ADF800008DF80300B5
:101D200003208DF8020069460348FFF754FB102199
:101D30000148FFF7E6FB08BD0010014000BFFEE7C9
:101D40007047000001480249086070470400FA0526
:101D50000CED00E070B5002100230F22C47804B31D
:101D6000154C246804F4E064C4F5E064210AC1F170
:101D70000403CA40447804FA03F1847814402143F0
:101D800009010E4C0678A155047804F01F050124C2
:101D9000AC4005786D11AD0005F1E025C5F80041B6
:101DA00009E0047804F01F050124AC40044D0678D6
:101DB000761145F8264070BD0CED00E000E400E02F
:101DC00080E100E0704710B5FFF77EFFFFF7B0F944
:101DD000FFF70CFFFFF7F2FDFFF79EFCFFF74AF954
:101DE000FFF738F810BD000029B1064A52690243D6
:101DF000044B5A6104E0034A52698243014B5A6121
:101E0000704700000010024029B1064AD26902431F
:101E1000044BDA6104E0034AD2698243014BDA6180
:101E2000704700000010024029B1064A12690243BF
:101E3000044B1A6104E0034A12698243014B1A61A0
:101E4000704700000010024029B1064A926902431F
:101E5000044B9A6104E0034A92698243014B9A6100
:101E6000704700000010024029B1064AD2680243C0
:101E7000044BDA6004E0034AD2688243014BDA6023
:101E8000704700000010024030B5002100220024FD
:101E900000232D4D6D6805F00C0121B1042905D0FA
:101EA000082923D105E0294D056022E0284D056071
:101EB0001FE0254D6D6805F47012234D6D6805F423
:101EC0008034022505EB92421CB9224D5543056032
:101ED0000BE01D4D6D6805F400351DB11E4D5543D9
:101EE000056002E01A4D5543056002E0174D05609C
:101EF00000BF00BF144D6D6805F0F0010909174DD2
:101F00006B5C0568DD4045600F4D6D6805F4E06170
:101F1000090A124D6B5C4568DD4085600A4D6D68AD
:101F200005F46051C90A0D4D6B5C4568DD40C56024
:101F3000054D6D6805F44041890B094D6B5CC56822
:101F4000B5FBF3F5056130BD0010024000127A00C8
:101F5000001BB70000093D00808D5B003C000020A5
:101F60004C0000207047000010B500243C48C069B8
:101F700040F080503A49C8610846C06940F00060AE
:101F8000C8613848006840F48070364908603448B9
:101F9000006A40F48030324908620846006A20F442
:101FA000803008620846406A40F00100486204E060
:101FB0000A2002F087FB601CC4B22948406A00F086
:101FC000020008B9FA2CF3DBFA2C00DB10BD244820
:101FD000006A20F44070224908620846006A40F412
:101FE000007008620846006A40F40040086200BFC2
:101FF0001D48008800F020000028F9D000BF1A48D2
:10200000008800F008000028F9D01748001F008859
:1020100040F001001449091F088000BF12480088E1
:1020200000F020000028F9D00F48008840F0100090
:102030000D4908800020091D088049F63F40091D10
:1020400008800948008820F010000749088000BF78
:102050000548008800F020000028F9D000BFB5E74F
:1020600000100240007000400428004010B5FFF747
:1020700003FC4720FFF7C6FB41F28830FFF740FC26
:1020800008B1012010BDFFF78DFB09490870FFF76B
:1020900021FBFFF787FB06494870FFF761FBFFF75D
:1020A0000DFC41F2883004F041FA0020EAE700001C
:1020B0009C0000203EB50446002002900520FFF75A
:1020C00017FD00F02FF8642004F030FA0021E3201F
:1020D00000F0A9F80090462002F0F4FA0021E52073
:1020E00000F0A1F80190192002F0ECFA00F01AF8C3
:1020F000192002F0E7FA02AAE6214020FFF7BBFA16
:10210000642004F013FA00F00DF8642004F00EFAD5
:1021100000F013F8642004F009FADDE90001C4E9D5
:1021200000013EBD08B5002000906A46E72140202E
:10213000FFF76CFA9DF8000008BD10B50022FE21E3
:102140004020FFF798FA10BD2DE9F84F82464FF076
:10215000000B2AF0030A5046FEF7A1FA0090FEF7A2
:10216000B7FA8046074A084BFEF7B8F90646002240
:10217000064BFEF7ADF90446FEF7BDFA8346584616
:10218000BDE8F88F7644CF7701405F3F00001840EC
:102190002DE9F84F82464FF0000B2AF0030A504613
:1021A000FEF77DFA0090FEF793FA8046074A084B47
:1021B000FEF794F90646074A074BFEF7E8F804468F
:1021C000FEF799FA83465846BDE8F88FD7A3703DCD
:1021D0000AF7653FCDCCCCCCCC6C47C070B503467C
:1021E0000C46154600210026002200BF13E0985C33
:1021F000414008260BE001F0800020B1312080EA48
:102200004100C1B201E04806010E701EC6B2002EA8
:10221000F1DC501CC2B2A242E9DBA94201D001208C
:1022200070BD0020FCE72DE9F84306460C46002768
:102230000025A846A9468025FFF760FC2846FFF741
:1022400027FC4CF25030FFF795FC10B10020BDE8A0
:10225000F8833046FFF71CFC4CF25030FFF78AFC45
:1022600008B10020F3E7FFF749FC691CC8B2FFF78B
:102270000FFC05E0FFF742FC691CC8B2FFF708FC41
:102280004CF25030FFF776FC0028F3D1462002F0E4
:1022900019FAFFF7D1FB8DF80000FFF771FBFFF78C
:1022A000CBFB8DF80100FFF76BFBFFF7C5FB074683
:1022B000FFF7A4FBFFF740FC3A4602216846FFF710
:1022C0008DFF9DF801009DF8001000EB01201FFA22
:1022D00080F8E32E04D14046FFF75AFF814603E021
:1022E0004046FFF731FF81461CB14846FEF7DCF956
:1022F00020804846ABE770472DE9FF5F06468946D8
:1023000017461C46DDF838A04FF00008C3460020F1
:1023100003900290002501904448006828B1444889
:10232000006810B14348006818B9022004B0BDE845
:10233000F09F00203F49096808703D48006804F09C
:10234000DDF831463CA000F08BFC3046FDF76AFF1B
:10235000014600903046354A1268904703F010FD60
:1023600083465BE00298504508D9681CC0B2054618
:10237000A04201DD0020D9E7012001902D4800682E
:102380000078012828D12A48006801682DA000F0B3
:1023900067FC002027490968087025490968086812
:1023A0004946FDF72DFF8046B8F1000F04D02048C4
:1023B000006804F0A3F832E01D490968086824A108
:1023C000FDF71EFF80461A48006804F097F8B8F140
:1023D000000F08D00220A9E703F0D2FC0390039875
:1023E000A0EB0B0002900198012817D1002001906A
:1023F000029003F0C5FC8346002D0FDD601C854272
:102400000CDA314614A000F02BFC3046FDF70AFF31
:10241000014600903046054A12689047A2E700BF87
:10242000384602F04FF9012080E7000050000020FC
:102430005800002054000020636D643A25730D0A93
:1024400000000000636D645F7273703A25730000D2
:102450004552524F52000000726574727920636DCC
:10246000643A2573000000002DE9F05F04468A46B7
:1024700015464FF0000900260027B04621480068A5
:1024800028B12148006810B12048006808B9BDE8AB
:10249000F09F00201D49096808701B48006804F07F
:1024A0002DF821461AA000F0DBFB2046FDF7BAFE0E
:1024B000834659462046134A1268904703F060FC51
:1024C000064618E0B8F1020F00D915E00F48006881
:1024D000007801280AD100200C49096808700A48D0
:1024E000006801680DA000F0BBFB05E003F048FCAC
:1024F0000746A7EB0608E5E700BF284602F0E2F82A
:1025000000BFC4E750000020580000205400002005
:10251000446174613A25730D0A00000064617461BE
:102520005F7273703A25730D0A00000010B500F059
:1025300001F810BD0CB500200190009033480068F0
:1025400040F480303149086000BF3048006800F432
:10255000003000900198401C0190009818B9019833
:10256000B0F5A06FF1D12948006800F4003010B137
:102570000120009001E0002000900098012843D144
:102580002348006840F010002149086008460068B0
:1025900020F0030008600846006840F00200086070
:1025A0001A4840681949486008464068486008462B
:1025B000406840F4806048600846406820F47C1021
:1025C00048600846406840F450204860084600686B
:1025D00040F08070086000BF0C48006800F0007098
:1025E0000028F9D00948406820F0030007494860F6
:1025F0000846406840F00200486000BF0348406859
:1026000000F00C000828F9D10CBD000000100240B9
:102610000020024010B50120FEF7B2FD0720FEF7B2
:10262000AFFD2020FEF7ACFD10BD042808D14FF00F
:10263000E021096941F004014FF0E022116107E057
:102640004FF0E021096921F004014FF0E02211610F
:102650007047704710B51348006840F001001149F9
:10266000086008464068104908400E49486008461E
:1026700000680E4908400B4908600846006820F4CD
:10268000802008600846406820F4FE0048604FF44F
:102690001F008860FFF74AFF4FF0006004490860A0
:1026A00010BD0000001002400000FFF8FFFFF6FE22
:1026B00008ED00E000B587B0012144F20400FFF707
:1026C000C3FB4FF40070ADF8180018208DF81B0004
:1026D00003208DF81A0006A91D48FEF77CFE4FF472
:1026E0008060ADF8180004208DF81B0006A918487A
:1026F000FEF771FE4FF4E13002900020ADF80C00BF
:10270000ADF80E00ADF81000ADF814000C20ADF8D7
:10271000120002A90F4800F031FA01210D4800F023
:1027200097F9012240F225510A4800F002FA2520CB
:102730008DF8040003208DF805008DF806000120B7
:102740008DF8070001A8FFF705FB07B000BD0000EA
:10275000000801400038014070B500263948008863
:1027600000F00F0018B13748001D04885EE03548BE
:10277000008800F01000002858D032480488001D5E
:1027800004883149C8680021FEF744FD2E49C86815
:10279000FEF7F2FDC0F500702C49C88008682CA136
:1027A000FDF72EFD061E13D0284908682AA1FDF763
:1027B00027FD061E0CD1254803F0AAFE85B223484A
:1027C00029460268274890F9000000F0F3FF2AE04C
:1027D0001E49086824A1FDF713FD061E03D0002042
:1027E000FFF746FA1FE01949086822A1FDF708FD26
:1027F000061E03D00120FFF73BFA14E00120204918
:102800000870124800891F4908811048C088C88094
:102810000E4803F07DFE05460C4A1168194A1068FF
:102820002A46FDF7BDFC094803F068FE0649C86862
:102830004FF40071FEF7C2FD0349C8680121FEF79D
:10284000E9FC70BD0048004074000020E801002051
:102850002B4D49504C0000002B4D49504C435245E4
:10286000415445005D0000202B43455245473A3016
:10287000000000002B43455245473A31000000005C
:102880005C000020F401002000B591B00121084651
:10289000FFF7AAFA01210820FFF7D6FA01218804E0
:1028A000FFF7B2FA464800F0E9F84FF48060ADF85F
:1028B000400003208DF8420018208DF8430010A935
:1028C0004048FEF788FD4FF40060ADF8400004205A
:1028D0008DF8430010A93B48FEF77DFD4FF41650DC
:1028E0000C900020ADF83400ADF83600ADF838009B
:1028F000ADF83C000C20ADF83A004FF400723249BC
:10290000324803F00CFE4FF400723149314803F0B5
:1029100006FE314800F02EFF30490870304A2D493C
:10292000304803F01FFD0CA9254800F027F92720A7
:102930008DF82C0000208DF82D0001208DF82E0040
:102940008DF82F000BA8FFF705FA2749C868FEF796
:102950006DFC1B48001D00901B4801900020029058
:102960004FF4007003900020049080200590002018
:102970000690079008904FF40050099000200A90AC
:102980001949C8686946FEF7FBFC1749C868012168
:10299000FEF740FC01224021094800F065F80122C1
:1029A0008021074800F060F8012240F224410448E9
:1029B00000F0BFF80121024800F04AF811B000BD54
:1029C00000480040000C014000020020E801002007
:1029D00000040020F4010020680000205D000020B9
:1029E0005C000020ED2900087400002030B58BB099
:1029F00004460D461349C8680021FEF70BFC124837
:102A000000900194102002900395002004908020F3
:102A10000590400006900020079008904FF4405029
:102A2000099000200A900749C8686946FEF7A8FC8B
:102A30000449C8680121FEF7EDFB00200349087036
:102A40000BB030BD84000020044800405C00002032
:102A500021B1828942F40052828104E082894DF6DC
:102A6000FF731A40828170471AB1838A0B438382B5
:102A700002E0838A8B4383827047000010B50446CE
:102A80002048844209D101218803FFF7EDF9002194
:102A90004FF48040FFF7E8F932E01B48844209D147
:102AA00001214804FFF7C0F900214FF40030FFF77F
:102AB000BBF925E01548844209D101218804FFF7BC
:102AC000B3F900214FF48020FFF7AEF918E0104869
:102AD000844209D10121C804FFF7A6F900214FF46F
:102AE0000020FFF7A1F90BE00A48844208D1012138
:102AF0000805FFF799F900214FF48010FFF794F9CA
:102B000010BD000000380140004400400048004073
:102B1000004C00400050004002460020B1F5007F0C
:102B200000D100BF13880B400BB1012000E0002052
:102B30007047F0B50346002400260025002040F62B
:102B40006A17B94200D100BF1846C1F3421401F020
:102B50001F06012707FA06F5012C01D10C3004E00D
:102B6000022C01D1103000E014301AB107682F4355
:102B7000076002E00768AF430760F0BD2DE9F0474A
:102B800086B005460E460024A24600BFA146002797
:102B9000B08900B100BF2F462C8A4CF6FF7004406C
:102BA000F08804432C82AC894EF6F3100440B088C0
:102BB00031890843718908430443AC81AC8A4FF6DC
:102BC000FF400440B0890443AC8201A8FFF75CF9E0
:102BD0001F48874202D1DDF810A001E0DDF80CA00B
:102BE000A88900F4004040B10AEBCA0000EB0A10CB
:102BF00031684900B0FBF1F807E00AEBCA0000EBCE
:102C00000A1031688900B0FBF1F86420B8FBF0F0DD
:102C100004012009642101FB1089A88900F4004007
:102C200040B1322000EBC900B0FBF1F000F007002A
:102C3000044308E0322000EB09106421B0FBF1F0FE
:102C400000F00F0004432C8106B0BDE8F0870000BF
:102C500000380140C1F308028280704700BFFEE7E0
:102C60000FB4054B10B503A9044A029800F002F90D
:102C700010BC5DF814FB000021380008B8000020EB
:102C80000FB4084B10B504A902AA039800F0F2F89B
:102C9000044602A9002000F070FC204610BC5DF83C
:102CA00014FB00007B3500080148006870470000F5
:102CB000C400002002E008C8121F08C1002AFAD18F
:102CC00070477047002001E001C1121F002AFBD1AC
:102CD000704700000149086070470000C4000020F0
:102CE0002DE9FF5F82B00021DDE90430020DDDF83F
:102CF00040B0034318D044F61050A2F2FF324243D2
:102D00001514119801281FD0A5EB0B00401C5FEA99
:102D1000000A4FF000064E4FDFF83891B04650469B
:102D200015D5CAF1000413E0119801244AA3012823
:102D300001D16FEA0B010298119AC0E90031C0E994
:102D4000024206B0BDE8F09FCBF10000DFE7044689
:102D50000021404A491842EB0450CDE9001012E02E
:102D6000E00707D032463B4640464946FDF7B6FBF2
:102D70008046894632463B4610461946FDF7AEFB73
:102D800006460F466410002CEAD1DDE90401DDE9B6
:102D90000023BAF1000F06DAFDF7A0FB42464B46CE
:102DA000FDF79CFB05E0FDF70BFC42464B46FDF7AB
:102DB00007FC04460E460022284BFDF71BFE03D8F5
:102DC0004FF0FF30014607E00022254B20463146F8
:102DD000FDF7DDFAFDF7F6FD102409E0002C0ADB13
:102DE0000A220023FDF7B9FC039B30321A55641EFA
:102DF00050EA0102F2D1641C039AC4F11103144495
:102E0000119A012A03D0012208430DD10AE0084398
:102E100004D000204FF0110B119072E7A3EB0B05CB
:102E20006D1E0DE05B4504DD4FF0000205F101056C
:102E300004E003DA4FF00002A5F10105002AECD00E
:102E400002981199C0E90231C0E9004579E7000014
:102E5000000014400000F03F300000000000F0438C
:102E60000000E03F30380A2801D2012070470020DE
:102E7000704700002DE9FF4F95B09A4688460646F8
:102E80000025EEE1252877D100242746F94A0121C3
:102E9000039400E0044316F8013F203B01FA03F0DD
:102EA0001042F7D130782A2811D06FF02F033078F4
:102EB000A0F13002092A16D8039A44F0020402EB6A
:102EC000820203EB42021044761C0390EFE758F8AD
:102ED000042B0392002A03DA504244F40054039076
:102EE00044F00204761C30782E2816D116F8010F13
:102EF00044F004042A280DD06FF02F023078A0F19E
:102F00003003092B09D807EB870302EB4303C718EB
:102F1000761CF3E758F8047B761C30786C280FD0C9
:102F200006DC4C2817D068280DD06A2814D104E09C
:102F3000742810D07A280FD10DE044F400140AE070
:102F400044F4801401E044F440147278824202D1C7
:102F500004F58014761C761C307866280BD013DCC0
:102F6000582877D009DC002875D04528F6D04628A7
:102F7000F4D047281AD193E118E0632835D06428AB
:102F800079D0652812D18BE1702873D008DC6728CE
:102F9000F1D069286FD06E280DD06F2806D1ACE033
:102FA00073282CD0752874D0782853D0524617999E
:102FB00090476D1C54E1C4F30250022809D0032845
:102FC0000DD0D8F8001004280DD00D6008F10408C9
:102FD00046E1D8F80010EA17C1E90052F6E7D8F840
:102FE00000100D80F2E70D70F0E718F8041B8DF863
:102FF000001000208DF80100EB46012003E058F896
:1030000004BB4FF0FF3061074FF0000102D40DE028
:1030100009F101018946B9420FDA8145F8DB1BF855
:1030200009100029F4D108E009F101018946814223
:10303000FADB1BF809100029F6D103985346A0EBE0
:10304000090721463846179A00F080FA284400EB19
:10305000090507E044E008E10DE01BF8010B5246CA
:1030600017999047B9F10109F7D2534621463846DE
:10307000179AF2E039E00A21C4F302524FF0000B34
:103080000091022A06D058F8040BC117032A09D070
:103090000AE023E008F1070020F00702F2E802014D
:1030A000904605E000B2C117042A01D140B2C11711
:1030B000002906DA0A460021404261EB02012D2276
:1030C00002E0220504D52B228DF80420012203E022
:1030D000E20701D02022F7E7914657E00A2100E0FD
:1030E00010214FF0000B00910BE010214FF0000B6E
:1030F00044F004040827009103E008204FF0000B7F
:103100000090C4F30252022A05D058F8040B0021A3
:10311000032A08D008E008F1070020F00702F2E8CF
:103120000201904603E080B2042A00D1C0B24FF001
:10313000000922072AD53278702A07D0DDF800C0AE
:103140008CF0100C5CEA0B0C05D00EE040228DF8E0
:103150000420012208E050EA010306D030238DF854
:1031600004308DF8052002229146009B83F008036D
:1031700053EA0B030AD150EA010201D1620705D5D7
:1031800030228DF804204FF001097F1E3278582A32
:1031900004D039A20C920CAA02920BE03BA2F9E7F0
:1031A0005B46009AFDF7D9FA0C9B9B5C029A521E73
:1031B0000292137050EA0102F2D1029804A9081A8F
:1031C00000F1200B600702D524F4803400E00127D1
:1031D0005F4502DDA7EB0B0000E0002000EB0B01D8
:1031E000009003984944401A0390E00306D45346E4
:1031F0002146179A039800F0A9F90544002706E034
:1032000001A85246C05D179990476D1C7F1C4F4521
:10321000F6DBE0030CD553462146179A039800F0DD
:1032200095F9054404E030205246179990476D1CEB
:103230000099481E00900029F5DC08E002980299E8
:1032400052460078491C0291179990476D1CBBF1BA
:103250000001ABF1010BF1DC5BE100F065F9054425
:10326000761C307800287FF40DAE19B02846BDE8F2
:10327000F08F000009280100303132333435363701
:1032800038396162636465660000000030313233B2
:103290003435363738394142434445460000000052
:1032A000600700D4062708F1070020F00700F0E8C7
:1032B0000223804603F0004C5FEA0C0001D097A087
:1032C00009E0200501D596A005E0E00701D095A012
:1032D00001E0AFF24C001390307823F000436528F2
:1032E0000CD006DC452809D046281DD047287FD1C0
:1032F0003BE0662818D067287AD136E00021112FEC
:1033000001DB112000E0781CCDE9000104A90CA824
:10331000FFF7E6FCDDE90D010C9A4FF0000B07F119
:103320000109109200914EE04FF000400097CDE966
:10333000011004A90CA8FFF7D3FCDDE90D020C9BDA
:103340000F994FF0000B91461093009211B9791C20
:1033500000EB0109B7EB090003D4C0F1FF3B07F113
:103360000109A9EB0700019042E0012F00DA0127D3
:103370000021112F01DD112000E03846CDE90001C8
:1033800004A90CA8FFF7ACFCDDE90D010C9A009133
:103390004FF0000BB946109221070FD4009A4A450E
:1033A00003DA914601E0A9F10109B9F1010F05DD48
:1033B000109AA9F10101515C3029F4D0B84202DA27
:1033C00010F1040F03DA0121CDE9011010E000280B
:1033D00003DC8344A9EB000102E0411C494500DD08
:1033E0008946A0EB0B00401C01904FF0004002907A
:1033F000200705D40198484502DB4FF0FF300190CB
:1034000000208DF84B0002980DF14B07B0F1004FF2
:1034100025D002200C902B200D90029800280CDA69
:10342000404202902D200D9007E00A210298FDF7FE
:103430007EF93031029007F8011D0C99481E0C905E
:103440000029F2DC02980028EFD1791E0D9808704F
:10345000307800F0200040F0450007F8020D11A878
:10346000C01BC01D02901398007800B1012000EB32
:103470000901019801EBE071029801440398401A98
:10348000401E0390E00306D453462146179A039842
:1034900000F05CF805441398007818B1524617996B
:1034A00090476D1CE00323D553462146179A039895
:1034B00000F04CF805441BE0BBF1000F07DB00985F
:1034C000584504DD1098179910F80B0001E0179982
:1034D00030205246904701980BF1010B401E05F138
:1034E0000105019004D12E205246179990476D1C7A
:1034F000B9F10001A9F10109DEDC05E017F8010BC3
:103500005246179990476D1C0299481E0290002957
:10351000F4DC53462146179A03989EE62D000000DE
:103520002B000000200000002DE9F041044600259A
:103530001E461746880404D405E039462020B047CB
:103540006D1C641EF9D52846BDE8F0812DE9F041D7
:10355000044600251E469046C80301D5302700E0EA
:103560002027880404D505E041463846B0476D1C45
:10357000641EF9D52846BDE8F0810A68531C0B602B
:103580001070704730B583B00446FFF78DFB0546D9
:103590000020CDE90000024621466846FDF74BF9C0
:1035A0002846FFF797FBDDE9000103B030BD0000BE
:1035B00010B56FF00400FFF738F80A4800680A49B0
:1035C000B0FBF1F0094908700846007800EB4001B3
:1035D000C1EBC0104FF6FF7101EAC000044908803A
:1035E00010BD00000000002000127A00AC00002096
:1035F000AE0000200146114A12884A434FF0E023F2
:103600005A6100229A611A46126942F001021A6157
:1036100000BF4FF0E022106900F001021AB100F47F
:103620008032002AF5D04FF0E022126922F0010228
:103630004FF0E0231A6100229A617047AE0000202B
:1036400070B505462C690EE0A66803E0B06801F08D
:10365000C2FD3668002EF9D1A06801F0BCFDA0883B
:1036600000F0E8FC2468002CEED1286901F0B3FDDD
:103670000020286170BD70B50446606900B970BD56
:1036800065690BE02E6903E0306901F0A4FD36683E
:10369000002EF9D1286901F09EFD2D68002DF1D191
:1036A000606901F098FD0020606100BFE7E770B538
:1036B0000446A06900B970BDA56903E0286901F05E
:1036C00022FC2D68002DF9D1A06901F084FD0020B5
:1036D000A06100BFEFE700002DE9F04704460D466A
:1036E00016469946DDE9087833462A46214602A067
:1036F000FFF7B6FABDE8F0876578656375746520F5
:103700002F25642F25642F25640D0A002DE9F0472D
:103710000546884600270026B1460024002D01DB1F
:103720000A2D03DB4FF0FF30BDE8F087104800EBB7
:10373000C5004468002616E06068805D88B1218875
:10374000A06806FB010738880FFA80F94A46B91CC1
:103750004046FCF725FD3946204601F025FA48464B
:10376000E2E7701CC6B26088B042E5DC0020DBE70F
:103770009801002070B50546002400BF12E00C48F7
:1037800010F8340060B90120094901F834000846F6
:1037900000EBC4004560284601F022FA204670BDC7
:1037A000601C44B20A2CEADB4FF0FF30F7E7000060
:1037B000980100202DE9F04704460E4617460025E3
:1037C000A846A946002C01DB0A2C03DB4FF0FF3092
:1037D000BDE8F087114901EBC401486801F0CEF95A
:1037E000054615B96FF00100F2E70C4800EBC40084
:1037F00040680088801E1FFA80F94E4501DD48466A
:1038000000E030468046A5F80080AD1C42463946AF
:103810002846FCF7C5FC0020DAE7000098010020EC
:1038200070B504460D46E1B20548FFF713FA00BF34
:1038300080210348FFF770F90028F9D0204670BDB9
:103840000038014010B5002821D0114B0022001F84
:10385000196803E0814203D80A4649680029F9D172
:1038600052B11368841A9C4204D100681844106055
:10387000104602E0506000E0186039B102680B1A8F
:10388000934203D10B681A4402604968416010BD3D
:10389000BC0000202DE9FC5F83460C4616461F46FF
:1038A000DDE90CA800BFA07900F0040000B92AE00F
:1038B0002146584601F0CCFC054605B923E0D5F871
:1038C000089099F8090000F0040020B93146002062
:1038D00000F042FC17E0B8F1000F0FD0CDE9007AFC
:1038E000B4F804C01FFA8CF2B4F802C01FFA8CF1CD
:1038F000B4F800C01FFA8CF0AB68C0473146012015
:1039000000F02AFC00BF00BFBDE8FC9F70B5054673
:103910000C4600BF2146284601F09AFC064606B92F
:103920000DE0E079012803D12146284601F080FE10
:10393000E07918B92146284601F025FF00BF00BFF5
:1039400070BD2DE9FC5F05460C4616469846DDF82D
:1039500030A000BF2146284601F07AFC074607B98F
:1039600024E0286A78B1B4F804B01FFA8BF2B4F8F6
:1039700002B01FFA8BF1B4F800B01FFA8BF0BB68ED
:10398000D5F820C0E0470020CDE90080A279334679
:103990002146384601F082FC8146002053464A46C3
:1039A00031460090204602F00CF900BF00BFBDE890
:1039B000FC9F00002DE9F04F89B007460E46914666
:1039C000DDF848A04FF0000B0020069000250024F1
:1039D0007CA14846FCF714FC044614B909B0BDE8C4
:1039E000F08FE41C06E014F8012B2846691CCDB2C8
:1039F00003A90A5420782C28F5D1002003A94855A2
:103A00000025641C03A8FCF70DFC0146029003A8E6
:103A100001F010F91FFA80F806E014F8012B28468F
:103A2000691CCDB203A90A5420782C28F5D10020B6
:103A300003A948550025641C03A8FCF7F3FB0146C5
:103A4000029003A801F0F6F800B2ADF81C0006E001
:103A500014F8012B2846691CCDB203A90A5420781A
:103A60002C28F5D1002003A948550025641C03A883
:103A7000FCF7D8FB0146029003A801F0DBF800B286
:103A8000ADF81E0006E014F8012B2846691CCDB2E3
:103A900003A90A5420782C2802D020780D28F2D1CE
:103AA000002003A948550025641C03A8FCF7BAFBB5
:103AB0000146029003A801F0BDF800B2ADF8200065
:103AC000BDF91C00401C28B19DF8220040F0010007
:103AD0008DF82200BDF91E00401C28B19DF822007F
:103AE00040F002008DF82200BDF92000401C28B1F2
:103AF0009DF8220040F004008DF82200012E14D120
:103B0000BDF92030BDF91E20BDF91C102EA0FFF715
:103B1000A7F851464846FCF75CFB53464A4607A9BE
:103B20003846CDF80080FFF70CFF022E23D1A41CED
:103B300006E014F8012B2846691CCDB203A90A54EB
:103B400020782C28F5D1002003A948550025641CB5
:103B500003A8FCF767FB0146029003A801F06AF88E
:103B60001FFA80FBF8692346424607A9CDE900B059
:103B7000384600F097F9032E22D106E014F8012B05
:103B80002846691CCDB203A90A5420782C28F5D107
:103B9000002003A948550025641C03A8FCF742FB3C
:103BA0000146029003A801F045F81FFA80FB786AED
:103BB0002346424607A9CDE900B03846FFF76AFE22
:103BC00000BF0BE73A302C0072656164206F626AB7
:103BD000696420256420696E7374696420256420FB
:103BE00072657369642025640D0A00002DE9F04FA9
:103BF00087B005460F469246DDF840B00024002607
:103C0000A046052F30D198A15046FCF7F9FA04469A
:103C1000002C28D0E41C06E014F8012B3046711C5F
:103C2000CEB204A90A5420780028F5D104A98855F9
:103C3000002604A8FCF7F6FA0146019004A800F05B
:103C4000F9FF1FFA80F94946A86901F0D0FA8046C9
:103C5000B8F1000FDDD0012088F806004A460121A6
:103C6000284602F0D5F8FCE0062F1AD17FA1504675
:103C7000FCF7C6FA0446002CF5D06988A86901F063
:103C8000B6FA804660783628EDD10120FEF706F8B6
:103C9000B8F1000FE7D06A880121284602F0B8F891
:103CA000DFE0072F23D171A15046FCF7A9FA0446A3
:103CB000002CD8D002226EA1601CFCF7C3FA0028A9
:103CC000D1D1FDF7EBFF287906280DD16988A869C5
:103CD00001F08DFA8046B8F1000FC4D02A88012186
:103CE000284602F095F8BCE003202871B9E0082FBF
:103CF0001ED15EA15046FCF783FA0446002CB2D0D8
:103D000002225CA1601CFCF79DFA0028ABD1287947
:103D10000428A8D16988A86901F069FA8046B8F139
:103D2000000FA0D02A880121284602F071F898E0FF
:103D3000042F98D150A15046FCF762FA044614B9FA
:103D400007B0BDE8F08FE41C48A12046FCF758FA04
:103D500004463CB1641C0121204600F06BFFC0B258
:103D60008DF80F00A41C002C7BD006E014F8012B6A
:103D70003046711CCEB204A90A5420782C28F5D103
:103D8000002004A988550026641C04A8FCF74AFA00
:103D90000146019004A800F04DFF00B2ADF8080004
:103DA000BDF90800002805DD9DF80E0040F0010077
:103DB0008DF80E0006E014F8012B3046711CCEB2CF
:103DC00004A90A5420782C28F5D1002004A988558C
:103DD0000026641C04A8FCF725FA0146019004A8FB
:103DE00000F028FF00B2ADF80A00BDF90A00002873
:103DF00005DB9DF80E0040F002008DF80E0006E095
:103E000014F8012B3046711CCEB204A90A54207854
:103E10000D28F5D1002004A988550026641C04A8AB
:103E2000FCF700FA0146019004A800F003FF00B27D
:103E3000ADF80C00BDF90C00002805DD9DF80E0062
:103E400040F004008DF80E00BDF90C30BDF90A20D9
:103E5000BDF9081009A0FEF703FF02A92846FFF7E5
:103E600055FD00BF6CE7000032362C002C0000002E
:103E700031350000313100003A302C006F6273653B
:103E8000727665206F626A696420256420696E73AA
:103E90007469642025642072657369642025640A4E
:103EA000000000002DE9FC5F06460F46904699464B
:103EB000DDE90CAB00BF3946304601F0C9F90546D3
:103EC00005B909E04B46424639462846CDE900ABE4
:103ED00001F0CCFA044600BF00BFBDE8FC9F70B5FE
:103EE000ADF5087D06460C46154600208DF800020B
:103EF0008DF801028DF80202ADF8040282968494D6
:103F00002046FCF78FF9839086952846FCF78AF9BE
:103F1000859005208DF81C028DF81D0202208DF879
:103F20001E0280AA0102684600F068FE0DF5087DB9
:103F300070BD000070B505460C46642202A12846FB
:103F4000FEF792FA204670BD4F4B00002DE9FF416D
:103F500007460C4615461E46DDF8288032212B48C0
:103F6000FCF737F911222AA12848FCF719F90A228F
:103F700001A9384601F0B4F801A92448FCF734F946
:103F800028A12248FCF730F90A2201A9204601F0B5
:103F9000A7F801A91D48FCF727F922A11B48FCF747
:103FA00023F921A11948FCF71FF929461748FCF706
:103FB0001BF91DA11548FCF717F91AA11348FCF7C6
:103FC00013F90A2201A9304601F08AF801A90F4825
:103FD000FCF70AF913A10D48FCF706F90A2201A91A
:103FE000404601F07DF801A90848FCF7FDF80FA153
:103FF0000648FCF7F9F8052000234FF496720CA14F
:1040000000900248FEF778F9BDE8FF811016002005
:1040100041542B4D49504C4144444F424A3D302C71
:10402000000000002C000000220000000D0A00002B
:104030004F4B00001FB5044632210F48FCF7C9F86A
:1040400011220EA10C48FCF7ABF80A2201A9204668
:1040500001F046F801A90848FCF7C6F80CA106488B
:10406000FCF7C2F8052000234FF4967209A10090D6
:104070000148FEF741F91FBD1016002041542B4D99
:1040800049504C44454C4F424A3D302C0000000002
:104090000D0A00004F4B0000FEB505460C463221CC
:1040A0001D48FCF796F816221CA11B48FCF778F86F
:1040B0000A226946284601F013F869461648FCF7BB
:1040C00093F81CA11448FCF78FF82046FCF7AAF8D7
:1040D000861E0A226946304601F002F869460E48FB
:1040E000FCF782F812A10C48FCF77EF821460A483A
:1040F000FCF77AF810A10848FCF776F80FA0FEF755
:10410000AFFD054911A0FEF7ABFD642211A10248E5
:10411000FEF7AAF9FEBD00001016002041542B4DF9
:1041200049504C444953434F5645525253503D30E9
:104130002C0000002C312C000D0A00006469736310
:104140006F766572207273703A00000025730D0A55
:10415000000000004F4B00003EB505460C463221E2
:104160001748FCF736F8152216A11548FCF718F881
:104170000A226946204600F0B3FF69461048FCF762
:1041800033F816A10E48FCF72FF80122694628469D
:1041900000F0A6FF69460A48FCF726F810A1084877
:1041A000FCF722F80FA0FEF75BFD054911A0FEF712
:1041B00057FD642211A10248FEF756F93EBD0000EA
:1041C0001016002041542B4D49504C45584543553D
:1041D00054455253503D302C000000002C0000008C
:1041E0000D0A000065786563757465207273703A16
:1041F0000000000025730D0A000000004F4B000076
:104200002DE9FE4F04460E4615461F46DDE90C8992
:104210004FF480614348FBF7DCFF132242A1414881
:10422000FBF7BEFFB4F900000A22694600F058FF10
:1042300069463C48FBF7D8FF40A13A48FBF7D4FF5A
:10424000B4F902000A22694600F04AFF694635487F
:10425000FBF7CAFF39A13348FBF7C6FFB4F90400E6
:104260000A22694600F03CFF69462E48FBF7BCFF76
:1042700032A12C48FBF7B8FF01226946304600F016
:104280002FFF69462748FBF7AFFF2CA12548FBF716
:10429000ABFF2846FBF7C6FF82460A22694600F0BC
:1042A0001FFF69461F48FBF79FFF24A11D48FBF72E
:1042B0009BFF23A11B48FBF797FF29461948FBF7F3
:1042C00093FF1FA11748FBF78FFF1CA11548FBF7B1
:1042D0008BFF01226946404600F002FF6946114803
:1042E000FBF782FF15A10F48FBF77EFF012269460D
:1042F000384600F0F5FE69460A48FBF775FF11A144
:104300000848FBF771FF10A0FEF7AAFC054911A0B1
:10431000FEF7A6FC642211A10248FEF7A5F8BDE84D
:10432000FE8F00001016002041542B4D49504C4E7A
:104330004F544946593D302C302C00002C000000D1
:10434000220000000D0A000073656E642064617431
:10435000613A000025730D0A000000004F4B000079
:104360002DE9FE4F04460E4615461F46DDE90D9A1F
:10437000DDF830804FF480615048FBF72AFF1222AD
:104380004FA14E48FBF70CFF0A226946384600F061
:10439000A7FE69464948FBF727FF4DA14748FBF7B1
:1043A00023FF0A226946404600F09AFE69464348C8
:1043B000FBF71AFF46A14148FBF716FFB4F90000CE
:1043C0000A22694600F08CFE69463C48FBF70CFF68
:1043D0003FA13A48FBF708FFB4F902000A226946F8
:1043E00000F07EFE69463548FBF7FEFE38A13348F3
:1043F000FBF7FAFEB4F904000A22694600F070FEE9
:1044000069462E48FBF7F0FE31A12C48FBF7ECFE85
:1044100001226946304600F063FE69462748FBF7F3
:10442000E3FE2BA12548FBF7DFFE2846FBF7FAFE4B
:1044300083460A22694600F053FE69461F48FBF78F
:10444000D3FE23A11D48FBF7CFFE22A11B48FBF79B
:10445000CBFE29461948FBF7C7FE1EA11748FBF7FC
:10446000C3FE1BA11548FBF7BFFE0A22694648465A
:1044700000F036FE69461148FBF7B6FE14A10F485E
:10448000FBF7B2FE01226946504600F029FE69465C
:104490000A48FBF7A9FE10A10848FBF7A5FE0FA0EC
:1044A000FEF7DEFB054910A0FEF7DAFB642210A13F
:1044B0000248FDF7D9FFBDE8FE8F0000101600206E
:1044C00041542B4D49504C524541445253503D307C
:1044D0002C000000220000000D0A000072656164DB
:1044E000207273703A00000025730D0A000000006E
:1044F0004F4B00002DE9FE4307460C4615461E466D
:104500004FF00008062201A9284600F0E9FD0F221D
:1045100018A13846FBF744FE01A93846FBF764FEB4
:1045200018A13846FBF760FE062201A9304600F0CC
:10453000D7FD01A93846FBF757FE13A13846FBF714
:1045400053FE052000234FF4967210A100903846C8
:10455000FDF7D2FE8046B8F1020F08D105200023F6
:104560004FF4967209A100903846FDF7C5FE20462B
:10457000BDE8FE8341542B4D49504C4F50454E3DB4
:10458000302C00002C0000000D0A00004F4B0000F2
:104590002DE9FE4380460C4615461E46002706229E
:1045A00001A9404600F09CFD112216A12846FBF708
:1045B000F7FD01A92846FBF717FE17A12846FBF7D0
:1045C00013FE012201A9204600F08AFD01A9284618
:1045D000FBF70AFE11A12846FBF706FE2846FBF76B
:1045E00021FE471CB7420BD2052000234FF49672E0
:1045F0000BA100902846FDF77FFE3846BDE8FE83FC
:104600000020FBE741542B4D49504C555044415438
:10461000453D302C000000002C0000000D0A000079
:104620004F4B00003EB505460C4632211748FBF7BC
:10463000D0FD132216A11548FBF7B2FD0A226946E8
:10464000204600F04DFD69461048FBF7CDFD15A151
:104650000E48FBF7C9FD01226946284600F040FDDF
:1046600069460A48FBF7C0FD0FA10848FBF7BCFDEF
:104670000EA0FEF7F5FA05490FA0FEF7F1FA642245
:104680000FA10248FDF7F0FE3EBD0000101600200D
:1046900041542B4D49504C57524954455253503D6B
:1046A000302C00002C0000000D0A000077726974A5
:1046B00065207273703A000025730D0A0000000037
:1046C0004F4B000070B50446002600254FF4FA70E9
:1046D00094FBF0F0C6B24FF4FA7094FBF0F100FBDB
:1046E000114085B205E04FF4FA70FEF783FF701EAB
:1046F000C6B2002EF7D115B12846FEF77BFF70BD7C
:1047000008B505460E464FF47A773146284600F044
:10471000CBFCFCF75FFC6420FCF753FEFCF7BAFB14
:104720008748884B884A39460090884800F02EFB1D
:1047300004463CB18548006800F052FB214684A045
:10474000FEF78EFA05209049087203204872084649
:1047500041F2DA63002240F6EF4100907B480068A6
:1047600001F090F904463CB17848006800F038FB4D
:10477000214686A0FEF774FA0420904908720120B1
:104780004872084641F24463002240F6E741009037
:104790006E48006801F076F904463CB16B48006849
:1047A00000F01EFB214686A0FEF75AFA042090492D
:1047B000087201204872084641F24463002240F624
:1047C000E84100906148006801F05CF904463CB1A2
:1047D0005E48006800F004FB214686A0FEF740FA20
:1047E00004209049087201204872084641F244634F
:1047F000002240F6E54100905448006801F042F97B
:1048000004463CB15148006800F0EAFA214686A00F
:10481000FEF726FA042091490872012048720846E2
:1048200041F24463002240F6F4410090474800689A
:1048300001F028F904463CB14448006800F0D0FA81
:10484000214687A0FEF70CFA042091490872012046
:104850004872084641F24463012240F6F441009058
:104860003A48006801F00EF904463CB13748006848
:1048700000F0B6FA21467AA0FEF7F2F90420854945
:10488000087201204872084641F24463022240F651
:10489000F44100902D48006801F0F4F804463CB162
:1048A0002A48006800F09CFA21466DA0FEF7D8F96E
:1048B00004207949087201204872084641F2446395
:1048C000032240F6F44100902048006801F0DAF835
:1048D00004463CB11D48006800F082FA214660A001
:1048E000FEF7BEF91948006800F01AFE6421174867
:1048F000006800F0D7F904462CB168A0FEF7B0F9C3
:1049000001F0BCF802E06CA0FEF7AAF900BF01219B
:104910000E48006800F073FA044664B121466DA0A9
:10492000FEF79EF90020FDF7B9F972A0FEF798F99D
:1049300001F0A4F802E03C2001F046FDE7E70000AA
:10494000D9360008C5610008416600083000002023
:1049500064657669636520616464207265736F7550
:10496000726365282F333230302F302F3537353092
:1049700029206661696C65642C20636F6465203D45
:104980002025642E0D0A0000480100206465766928
:10499000636520616464207265736F757263652856
:1049A0004C454429206661696C65642C20636F6402
:1049B00065203D2025642E0D0A000000C80000205F
:1049C00064657669636520616464207265736F75E0
:1049D0007263652874656D7029206661696C656411
:1049E0002C20636F6465203D2025642E0D0A000095
:1049F000D800002064657669636520616464207274
:104A000065736F757263652868756D6929206661C5
:104A1000696C65642C20636F6465203D2025642EDD
:104A20000D0A0000E8000020646576696365206176
:104A30006464207265736F7572636528696C6C7548
:104A40006D6929206661696C65642C20636F6465FB
:104A5000203D2025642E0D0A000000005801002092
:104A600064657669636520616464207265736F753F
:104A700072636528707265737329206661696C655D
:104A8000642C20636F6465203D2025642E0D0A0090
:104A9000680100207801002088010020636F6E6E9D
:104AA000656374204F6E654E4554206661696C6580
:104AB000642E0D0A00000000636F6E6E6563742043
:104AC0004F6E654E455420737563636573732E0D89
:104AD0000A00000064657669636520737465702060
:104AE0006572726F722C20636F6465203D202564AF
:104AF0002E0D0A00636F6E6E6563742073657276A7
:104B00006572206661696C65642E0D0A0000000004
:104B1000F0B50B30154D20F007010024144A0FE0CA
:104B200003688B420BD38B4205D95E1A4318476842
:104B3000C3E9006700E04368136002C004E0021D9F
:104B400010680028ECD12046002802D1286808B15E
:104B50000020F0BD064A07481060074A121A22F0EA
:104B60000702C0E9002401202860D7E7C000002028
:104B7000BC000020141A0020102A00200146002248
:104B80000DE04868805C48B94868805C401C4B6810
:104B900098540B88886802FB03007047521C4888B1
:104BA0009042EEDC0020F8E730B502460B469468F0
:104BB000002110E09C420BD15068405C002804DDCD
:104BC0005068405C401E556868545068405C30BD79
:104BD00010880444491C50888842EBDCFF20F6E72B
:104BE00010B5044661886068FBF7F3FA2288638891
:104BF00002FB03F1A068FBF7ECFA10BDF8B5044620
:104C00000D46164606492046FBF713FB4FF49670F7
:104C10000023024603A100902046FDF76DFBF8BD7E
:104C2000CC6600082B4D49504C4352454154453AFF
:104C30003000000010B5024600230124002A2CD0C9
:104C400004E01078A0F12D04521C491E99B110788F
:104C500088B110782028F4D010780D28F1D0107881
:104C60000928EED010780A28EBD010782D28E8D04B
:104C700010782B28E5D007E003EB83004300107881
:104C800030380344521C491E39B1107828B11078CD
:104C9000302802DB10783928EEDD0CB1184610BD43
:104CA0005842FCE72DE9F043ADF2044D04460F46AF
:104CB0004FF4806101A8FBF78CFA4FF4806301AADE
:104CC0003946204600F062FE8146B9F1000F05D05A
:104CD0006FF007000DF2044DBDE8F08301F050F8CD
:104CE000054600BF4FF4806101A800F03FFE8046FA
:104CF000B8F1000F06DD4FF48063424601A920465B
:104D000000F008F901F03CF806464FF4806301AA70
:104D10003146204601F0A0F82079022801D1002078
:104D2000D8E72079032802D16FF00700D2E764208A
:104D300000F0ECFFE819B042D4D2207910B96FF03E
:104D40000800C7E72079022801D10020C2E72079B6
:104D5000042801D10020BDE72079052801D10020D9
:104D6000B8E72079032802D16FF00700B2E7207975
:104D70000B2802D16FF00900ACE720790A2802D194
:104D80006FF00C00A6E76FF00B00A3E72DE9F047EA
:104D900006460D4617469846DDF820904FF40A70F7
:104DA00000F034FA04461CB96FF00100BDE8F0874A
:104DB0004FF40A71204600F03FFA346000F0C4FD61
:104DC000208020886080A560E761C4F82080C4F856
:104DD0002490002211462846FFF781F80020E5E7DD
:104DE00010B504462046FEF762FC2046FEF743FC61
:104DF0002046FEF725FC204600F085F810BD2DE981
:104E0000F041ADF5806D04460E4600F0B9FF8046D6
:104E100000BF4FF48061684600F0A8FD0746002FF0
:104E200006DD4FF480633A466946204600F072F88A
:104E30004FF480616846FBF7CCF900F0A1FF05460E
:104E40004FF480636A462946204600F0C9FD207968
:104E500002280ED0207905280BD02079042808D00C
:104E60002079062805D02079012802D0207903284E
:104E700006D14FF480636A462946204600F0ECFFD5
:104E80002079022805D02079042802D0207905282D
:104E900006D14FF480636A462946204600F0D4FCD0
:104EA0000A2000F033FF08EB0600A842B1D22079B7
:104EB00028B96FF008000DF5806DBDE8F08120790C
:104EC000022801D10020F6E72079042801D1002032
:104ED000F1E72079052801D10020ECE720790328AB
:104EE00002D16FF00700E6E720790B2802D16FF0BE
:104EF0000900E0E720790A2802D16FF00C00DAE718
:104F00006FF00B00D7E710B504462046FEF79AFC79
:104F100010BD00002DE9F04F87B004460D469046C5
:104F20001E460027BA46BB46002006900590049016
:104F30008146039002903AA12846FBF761F9824628
:104F40003AA12846FBF75CF983463BA12846FBF7CC
:104F500057F906903CA12846FBF752F904903EA170
:104F60002846FBF74DF905903FA12846FBF748F985
:104F70008146B9F1000F04D13FA12846FBF740F963
:104F8000814641A12846FBF73BF9039042A1284600
:104F9000FBF736F90290BAF1000F01D001271CE0AF
:104FA000BBF1000F01D0022717E0069808B10327D4
:104FB00013E0059808B105270FE0049808B104270D
:104FC0000BE0B9F1000F01D0062706E0039808B105
:104FD000072702E0029800B10827012F15DB032FF5
:104FE00013DC2079022808D02079042805D0207904
:104FF000052802D0207906280ED143462A46394694
:1050000020460096FEF7D6FC06E043462A4639467F
:1050100020460096FEF7EAFD07B0BDE8F08F0000DD
:105020002B4D49504C524541440000002B4D4950F6
:105030004C575249544500002B4D49504C4558455A
:1050400043555445000000002B4D49504C4F4253EE
:1050500045525645000000002B4D49504C455645E1
:105060004E543A302C3236002B4D49504C45564563
:105070004E543A302C3600002B4D49504C45564585
:105080004E543A302C3700002B4D49504C45564574
:105090004E543A302C3135002B4D49504C45564535
:1050A0004E543A302C31310070B504460D460B4851
:1050B000007890B900F06EFEFCF728FEFDF7FAFAD2
:1050C000FDF7E2FBFCF77FFE41F28830FFF7FAFACA
:1050D00000F02EFF01200149087070BDA5000020DE
:1050E0002DE9FE4305460F469146002F2BD06E4614
:1050F0006C46002D04DA761C6D422D2004F8010B5D
:1051000000BF0A2095FBF0F100FB1150303004F88D
:10511000010B0A2095FBF0F5002DF2D1002004F8D8
:10512000010907E096F800802078307084F800804C
:10513000761C641EA642F5D34A466946384600F0FE
:105140000DFEBDE8FE830020FBE710B503460BB95A
:10515000084610BD98888C88A04202DD0B60084686
:10516000F7E71A4600E01268106820B110688088DE
:105170008C88A042F7DB1068086011601846E8E7E9
:1051800010B503460C4623B90AB100201060002078
:1051900010BD9888A04203D102B113601868F7E7E8
:1051A000194600E00968086818B108688088A042BC
:1051B000F8DB086850B108688088A04206D10AB1BF
:1051C0000868106008680068086002E00AB1002002
:1051D00010601846DCE770B5044605E025462468F3
:1051E0002846FFF790FE00BF002CF7D170BD0246A5
:1051F00000E0126812B190888842FADB22B19088F0
:10520000884201D1104670470020FCE710B50446E3
:105210002046FFF77DFC10BD30B560B159B152B1E9
:1052200003460C4604E025781D705B1C641C521E6E
:10523000002AF8D100BF30BD48B141B1024603E0B9
:1052400000231370521C491E0029F9D100BF70477A
:1052500070B506460C460025A07900F00100D8B1D3
:10526000228891B23069FFF7C2FF0546A5B1A07947
:1052700000F0020080B1628891B2A868FFF7B7FF22
:1052800005464DB1A07900F0040028B1A28891B282
:10529000A868FFF7ACFF0546284670BD2DE9F04F22
:1052A00089B00646894617469A46DDE9128B07F013
:1052B000040000287DD0B468BBF1000F04D0607AF0
:1052C00000F00800002875D0002007900025B9F9EB
:1052D0000200082202A9FFF703FF02A95046FAF7CD
:1052E00083FF02A8FAF79EFF284485B25CA15046CE
:1052F000FAF77AFF681C85B2607A00F0080018B1EE
:10530000607A20F008006072207A05280ED120789B
:1053100008B1012000E000200190012204A90198B9
:10532000FFF7DEFE012504A8079000BF207A0328BE
:105330000AD10A2204A92068FFF7D2FE04A8FAF7CE
:1053400071FF85B204A80790207A04280FD1D4E910
:10535000000102460B46CDE9000142A104A8FDF779
:105360008FFC04A8FAF75EFF85B204A80790207AA4
:10537000012802D0207A022803D120680790A08853
:1053800085B2B088082202A9FFF7AAFE02A95046FA
:10539000FAF72AFF02A8FAF745FF284485B230A1A0
:1053A0005046FAF721FF681C85B2207A012202A933
:1053B00001E022E020E0FFF793FE02A95046FAF751
:1053C00013FF681C85B226A15046FAF70DFF681C32
:1053D00085B250460799FAF707FF23A15046FAF71E
:1053E00003FF681C85B2454504D34FF0FF3009B078
:1053F000BDE8F08F2846FAE72FE007F0010058B328
:105400000025002407F0020010B147F0040701E076
:1054100047F00207B6681AE007F0040018B9B08830
:1054200000B2A9F80200B8F1000F0FD053463A4677
:1054300049463046CDE9008BFFF730FF85B2681C46
:1054400000B906E0601984B2A8EB04083668002EA3
:10545000E2D100BF2046CAE700BF0020C7E7000036
:105460002C000000256600003B0000002DE9F047FD
:1054700006460D4617469846DDE9089AA87900F0D9
:10548000040000284AD0B468607A00F0020030B905
:1054900039460020FFF7C6F88520BDE8F087207A5E
:1054A000052808D101214046FFF7C4FB08B10120BF
:1054B00000E000202070207A032806D149464046AB
:1054C000FFF7B8FBC117C4E90001207A042804D112
:1054D0004046FEF757F8C4E90001207A012802D0BF
:1054E000207A022809D12068FFF70DFD4946404681
:1054F00000F012FC2060C4F80490BAF1000F07D04D
:10550000AB889AB26B8899B22B8898B22346D04761
:1055100039460120FFF786F84420BEE78020BCE72B
:105520002DE9F04FADF5157D82464FF000094FF0A3
:10553000010B00270020859000244FF4007102A881
:10554000FAF747FEDAF8105067E0D5F808802AE04D
:1055500031224846411C01F0FF0990A90A54D8F8AD
:1055600008601CE04FF0010B00240AE086A830F828
:105570001400B188884202D14FF0000B03E0601C98
:10558000C4B2BC42F2DB00BFBBF1010F06D1B2884E
:105590003846791C8FB286A921F810203668002E73
:1055A000E0D1D8F80080B8F1000FD1D1002090A947
:1055B00001F809000090A888002390AA4946FEF748
:1055C000C5FC22208DF80800002413E086A931F8DC
:1055D00014000A2282A9FFF783FD82A902A8FAF724
:1055E00003FE781EA04203D00FA102A8FAF7FCFD2B
:1055F000601CC4B2BC42E9DB0CA102A8FAF7F4FDBE
:10560000A88802A9FEF748FD4FF4007102A8FAF736
:10561000E0FD4FF0000900272D68002D95D10DF514
:10562000157DBDE8F08F00003B0000002200000067
:105630002DE9F04707460E46B07900F0010000283A
:105640007AD04FF00009328891B27869FFF7CFFD28
:105650000446A4B91820FFF7D9FD044614B9002068
:10566000BDE8F0874FF0010918212046FFF7E4FD5F
:105670003088A08021467869FFF767FD7861B079AE
:1056800000F00100002875D04FF0000A728891B236
:105690002069FFF7ACFD0546FDB91820FFF7B6FD00
:1056A00005466DB9B9F1000F08D0A18800227869CC
:1056B000FFF766FD78612046FFF725FC0020CFE765
:1056C0004FF0010A18212846FFF7B6FD7088A88020
:1056D00029462069FFF739FD2061B07900F0040008
:1056E00000283FD0B28891B22869FFF780FD80463C
:1056F000B8F1000F2DD11820FFF788FD8046B8F1D2
:10570000000F1AD1BAF1000F08D0A9880022206931
:10571000FFF736FD20612846FFF7F5FBB9F1000FD2
:1057200008D0A18800227869FFF72AFD7861204619
:10573000FFF7E9FB002093E723E018214046FFF73D
:105740007BFDB088A8F8040041462869FFF7FDFCFE
:105750002861012088F8140000F012FBC8F80C0042
:1057600040467DE70120287500F00AFBE8602846E6
:1057700076E7FFE70120207500F002FBE06020469D
:105780006EE700206CE7F8B507460C46A07900F0FC
:105790000100002856D0228891B27869FFF727FDD2
:1057A00005460DB98420F8BDA07900F0020000285C
:1057B00034D0628891B22869FFF719FD06460EB908
:1057C0008420F0E7A07900F00400A0B1A28891B293
:1057D0003069FFF70CFD0090009808B98420E2E7DB
:1057E000A28891B26A463069FFF7CAFC306100981E
:1057F000FFF789FB00BF306978B9307D18B1A07917
:1058000000F0040048B9628891B200222869FFF7CD
:10581000B7FC28613046FFF776FB00BF286978B9EE
:10582000287D18B1A07900F0020048B9228891B211
:1058300000227869FFF7A4FC78612846FFF763FB34
:105840004520B0E78020AEE72DE9FE4F81468B462C
:1058500092461F46D9F8145072E0A88800B2ADF8FD
:10586000040001208DF80A002E694EE0B08800B2D5
:10587000ADF806009DF80A0040F002008DF80A001D
:10588000D6F8108022E098F81400E8B1B8F80400C7
:1058900000B2ADF808009DF80A0040F004008DF851
:1058A0000A0001A94846FFF7D3FC044664B19DF8FD
:1058B0000A10204600F034FC30B1534601AA2146BC
:1058C0004846009700F050FCD8F80080B8F1000F6F
:1058D000D9D1307DC0B19DF80A0020F004008DF8C8
:1058E0000A0001A94846FFF7B3FC044664B19DF8DD
:1058F0000A10204600F014FC30B1534601AA21469C
:105900004846009700F030FC3668002EAED1287D66
:10591000A8B101208DF80A0001A94846FFF798FCBC
:10592000044664B19DF80A10204600F0F9FB30B13E
:10593000534601AA21464846009700F015FC2D6801
:10594000002D8AD1BDE8FE8F10B50748007838B920
:1059500001200549087000F013FA0446FAF718FC14
:10596000FAF70CFC10BD0000B0000020F8B50546A9
:105970000E46002000906A463146284600F0ACFAF8
:1059800004460CB12046F8BD0098FCE72DE9F84329
:1059900004460D4616461F464FF00008207903289E
:1059A00001D02079C0B9EBB2208982B239463046A5
:1059B000FEF7A0FD8046B8F1000F0AD0012020714B
:1059C00006484346324601210090204600F0E8F99F
:1059D00002E0A020BDE8F8830020FBE78163000817
:1059E0002DE9F04104460D4616461F46D4F80880BE
:1059F000207902280AD1A8F13208E0684044A84280
:105A000004D83A463146204600F010F8207905289F
:105A100004D13A463146204600F008F820790328A0
:105A200002D10020FCF7F8F8BDE8F081F8B5044693
:105A30000D46164600270DA0FDF712F9218988B200
:105A400033462A460021FEF7A3FD074657B104203E
:105A5000207109483B462A4601210090204600F06B
:105A60009FF901E0A020F8BD0020FCE7757064619B
:105A700074650D0A00000000A563000810B5FCF76E
:105A800061F910BD2DE9FF5F06468A4690469946AA
:105A9000DDF838B00020039002900FFA8AF0ADF8DC
:105AA00000000FFA88F0ADF802000FFA89F0ADF8A7
:105AB00004009DF8060040F001008DF806009DF8F6
:105AC000060040F002008DF8060051463069FFF7ED
:105AD0008EFB0446B4B90C20FFF798FB044624B9AA
